:0F000300D2B47F017E00120012D2B57F017E00C1
:10001200D3EF9400EE94004007EF1F70F31E80F0C0
:0100220022BB
:100D0400120003C2B412000EC2B57F017E000200BD
:010D140012CC
:100D3700C2B4C2B5120005D2B47F017E0002001210
:100C8200C2B5EFB4FF04D2B48002C2B4120005C2EE
:080C9200B57F017E0002001293
:100CE0007DFF12000320B402E4FDC2B512000EAF76
:010CF00005FE
:010CF10022E0
:020BF300AD074C
:100BF500E4FBFAE4FCED5480B480027CFFAF041200
:100C05000C8212000EED25E0FD0BBB00010AEB6422
:070C1500084A70DF120CE039
:010C1C0022B5
:020BC600A9077D
:100BC800E4FCFBFAEC25E0FC120CE0AD0712000E89
:100BD800EDB4FF04EC4401FC0BBB00010AEB640814
:0A0BE8004A70E1AF01120C82AF0465
:010BF20022E0
:0F0026004201E680004201E480014201E28002D3
:1009B000E4FFFE0FBF00010EBE2EF8BFE0F5120CE3
:1009C000B29001E6E0FEA3E0F5828E837438F01267
:1009D0000CB29001E6E0FEA3E0F5828E83740CF089
:1009E000120CF2120CB29001E6E0FEA3E0F5828E4A
:0409F000837406F016
:0109F40022E0
:100A7A009001D3EFF0A3EDF0A3EBF0120CB29001CA
:100A8A00D4E0FF120C639001D5E02FFF9001E6E05D
:100A9A00FCA3E0F5828C83EFF0120CB29001D3E054
:0F0AAA00FF9001E2E0FCA3E0F5828C83EFF022E5
:0E0A38009001CEEBF0A3EAF0A3E9F0A3EDF0FD
:100A4600E4A3F0F09001CEE0FBA3E0FAA3E0F99076
:100A560001D2E0FEF5827583001205EDFF9001D10B
:100A6600E0FDAB06120A7A9001D2E004F0E0C394EE
:030A76001440D158
:010A7900225A
:0B0AB9009001CAEBF0A3EAF0A3E9F003
:100AC400E4A3F09001CDE0FFC394045024EF75F04B
:100AD40015A4FF9001CAE0FBA3E0FAA3E02FF9EA12
:100AE40035F0FAA3E0FD120A389001CDE004F0805D
:010AF400D22F
:010AF50022DE
:100CF200120CB29001E6E0FEA3E0F5828E8374014D
:020D0200F022DD
:100CB2009001E4E0FEA3E0F5828E83E020E7F1E418
:060CC200FF0FEFB40AFB76
:010CC8002209
:100C6300EF14600E14600F1460102403700E7E8066
:0E0C7300800A7EC080067E9480027ED4AF068A
:010C81002250
:1000350045000A6666666600430014000000450038
:1000450003FFFFFFFFFF41000F03420001000542D0
:100055000008000044001066664C00410000006086
:10006500540175313A363620323A363620333A362F
:100075003620343A36362000353A363620583A4658
:100085004620593A464620503A46462000423A46CE
:100095004620504F49443A2D2D2020202020202055
:1000A50020003035207365713A3020737465703ADD
:1000B50030204F66664C00615E0017FFFFFFFFFFB3
:1000C500FFFFFFFFFFFFFFFFFFFFFFFFFFFFFFFF3B
:1000D500FFFFFFFFFFFFFFFFFFFFFFFFFFFFFFFF2B
:1000E500FFFFFFFFFFFFFFFFFFFFFFFFFFFFFFFF1B
:1000F500FFFFFFFFFFFFFFFFFFFFFFFFFFFFFFFF0B
:10010500FFFFFFFFFFFFFFFFFFFFFFFFFFFFFFFFFA
:10011500FFFFFFFFFFFFFFFFFFFFFFFFFFFFFFFFEA
:10012500FFFFFFFFFFFFFFFFFFFFFFFFFFFFFFFFDA
:10013500FFFFFFFFFFFFFFFFFFFFFFFFFFFFFFFFCA
:10014500FFFFFFFFFFFFFFFFFFFFFFFFFFFFFFFFBA
:10015500FFFFFFFFFFFFFFFFFFFFFFFFFFFFFFFFAA
:10016500FFFFFFFFFFFFFFFFFFFFFFFFFFFFFFFF9A
:10017500FFFFFFFFFFFFFFFFFFFFFFFFFFFFFFFF8A
:10018500FFFFFFFFFFFFFFFFFFFFFFFFFFFFFFFF7A
:10019500FFFFFFFFFFFFFFFFFFFFFFFFFFFFFFFF6A
:1001A500FFFFFFFFFFFFFFFFFFFFFFFFFFFFFFFF5A
:1001B500FFFFFFFFFFFFFFFFFFFFFFFFFFFFFFFF4A
:1001C500FFFFFFFFFFFFFFFFFFFFFFFFFFFFFFFF3A
:1001D500FFFFFFFFFFFFFFFFFFFFFFFFFFFFFFFF2A
:1001E500FFFFFFFFFFFFFFFFFFFFFFFFFFFFFFFF1A
:1001F500FFFFFFFFFFFFFFFFFFFFFFFFFFFFFFFF0A
:10020500FFFFFFFFFFFFFFFFFFFFFFFFFFFFFFFFF9
:09021500FFFFFFFFFFFFFFFFFFE9
:10083500120D151209B0120D477B017A0179751257
:100845000AB9120D5F308D097B017A007914120CFB
:10085500C9900014E0D394054018E4F07B019001A1
:10086500CD04F0A37400F0A3740AF07A00790312A2
:1008750007C3900015E0D394034002E4F0900016FE
:10088500E0D394274002E4F0900000E070B79001B7
:06089500C9E0642080AF01
:100B30007B017A00790A1203DA7B017A00790312C9
:100B400004F37B017A00790F1206A37B017A007906
:100B5000011209F57B017A007908120AF67B017A05
:060B600000791002095D9E
:100D1500759850438920758DFF438780D28ED2996F
:010D250022AB
:1003DA009001EEEBF0A3EAF0A3E9F09001EEE0FB66
:1003EA00A3E0FAA3E0F9E4FD120B667B02E4FD1236
:1003FA000A7A9001EEE0FBA3E0FAA3E0F97D01128C
:10040A000B667B03E4FD120A7A9001EEE0FBA3E09F
:10041A00FAA3E02401F9E43AFAE4FD120B667B0739
:10042A00E4FD120A7A9001EEE0FBA3E0FAA3E024CD
:10043A0001F9E43AFA7D01120B667B08E4FD120A1F
:10044A007A9001EEE0FBA3E0FAA3E02402F9E43A91
:10045A00FAE4FD120B667B0CE4FD120A7A9001EEB7
:10046A00E0FBA3E0FAA3E02402F9E43AFA7D0112E0
:10047A000B667B0DE4FD120A7A9001EEE0FBA3E025
:10048A00FAA3E02403F9E43AFAE4FD120B667B11BD
:10049A00E4FD120A7A9001EEE0FBA3E0FAA3E0245D
:1004AA0003F9E43AFA7D01120B667B12E4FD120AA3
:1004BA007A9001EEE0FBA3E0FAA3E02404F9E43A1F
:1004CA00FAE4FD120B667B027D01120A7A9001EEB4
:1004DA00E0FBA3E0FAA3E02404F9E43AFA7D01126E
:0904EA000B667B037D01020A7A16
:1004F3009001F1EBF0A3EAF0A3E9F09001F1E0FB46
:10050300A3E0FAA3E0F9E4FD120B667B077D011279
:100513000A7A9001F1E0FBA3E0FAA3E0F97D01126E
:100523000B667B087D01120A7A9001F1E0FBA3E0E0
:10053300FAA3E02401F9E43AFAE4FD120B667B0C1A
:100543007D01120A7A9001F1E0FBA3E0FAA3E02413
:1005530001F9E43AFA7D01120B667B0D7D01120A63
:100563007A9001F1E0FBA3E0FAA3E02402F9E43A74
:10057300FAE4FD120B667B117D01120A7A9001F1F8
:10058300E0FBA3E0FAA3E02402F9E43AFA7D0112C6
:100593000B667B127D01120A7A9001F1E0FBA3E066
:1005A300FAA3E02403F9E43AFAE4FD120B667B02B2
:1005B3007D02120A7A9001F1E0FBA3E0FAA3E024A2
:1005C30003F9E43AFA7D01120B667B037D02020A0A
:0105D3007AAD
:1006A3009001F4EBF0A3EAF0A3E9F09001F4E0FB8E
:1006B300A3E0FAA3E0F91208FD1205D4FF7B0A7D3B
:1006C30002120A7A9001F4E0FBA3E0FAA3E0F91224
:1006D30008FD9000011205EDFF7B0B7D02120A7AE3
:1006E3009001F4E0FBA3E0FAA3E0F91208FD900007
:1006F300021205EDFF7B0C7D02120A7A9001F4E0F1
:10070300FBA3E0FAA3E0F91208FD9000031205ED44
:10071300FF7B0D7D02120A7A9001F4E0FBA3E0FA5D
:10072300A3E0F91208FD9000041205EDFF7B0E7D96
:0407330002020A7A3A
:1009F5009001F7EBF0A3EAF0A3E9F09001F7E0FB33
:100A0500A3E0FAA3E02401F9E43AFAE4FD120B9815
:100A1500E4FB7D03120A7A9001F7E0FBA3E0FAA359
:100A2500E02401F9E43AFAE4FD120B987B017D0319
:030A3500020A7A38
:100AF6009001FAEBF0A3EAF0A3E9F09001FAE0FB2B
:100B0600A3E0FAA3E0F91205D4FF7B077D03120ADE
:100B16007A9001FAE0FBA3E0FAA3E0F99000011253
:0A0B260005EDFF7B0E7D03020A7A45
:10095D009001FDEBF0A3EAF0A3E9F09001FDE0FBBF
:10096D00A3E0FAA3E0F91205D4FF7B117D03120A6F
:10097D007A9001FDE0FBA3E0FAA3E0F990000112EB
:10098D0005EDFF7B127D03120A7A9001FDE0FBA3BA
:10099D00E0FAA3E0F99000021205EDFF7B137D0351
:0309AD00020A7AC1
:0F0D47005389F0438901E4F58A758C4CD28C22D4
:100CC900C28D740112061A900001740112063C903B
:070CD9000002740102063C59
:100C9A00426C65752000566572742000526F756744
:080CAA0065004E6F6E6520002D
:100B6600ED70091205D4FFC4540F8009EDB4010BD2
:100B76001205D4440F900200F08006900200742003
:100B8600F07B017A027900120C42900200EFF0E04D
:010B9600FF5F
:010B9700223B
:100B9800ED700B1205D475F00A84E5F08018EDB4F9
:100BA80001091205D475F00A84800BEDB4020C1209
:0D0BB80005D475F064842430FF80027F2096
:010BC500220D
:0B08FD009001E8EBF0A3EAF0A3E9F0A3
:100908001205D4FF70109001EB74FFF0A3740CF083
:10091800A3749AF08033EFB401109001EB74FFF0E8
:10092800A3740CF0A374A0F0801FEF9001EBB40245
:100938000D74FFF0A3740CF0A374A6F0800B74FF81
:10094800F0A3740CF0A374ACF09001EBE0FBA3E00F
:04095800FAA3E0F925
:01095C002278
:100C42001205D4FED394095006EE2430FF8011120F
:100C520005D4FED3940F5006EE2431FF80027F208C
:010C6200226F
:10021E004101D8004101D6004101D7004101D9006A
:050D5F00D2ACD2AF226E
:0300230002089B35
:10089B00C0E0C0F0C083C082C0D075D000C000C023
:1008AB0001C002C003C004C005C006C007309822B7
:1008BB00120D649001D9EFF09001D8E0FE24DAF527
:1008CB0082E43401F583EFF0EE0454079001D8F085
:1008DB00C298309902C299D007D006D005D004D067
:1008EB0003D002D001D000D0D0D082D083D0F0D0B2
:0208FB00E032E9
:020D6400AF9945
:010D6600226A
:0B022F009001D0EBF0A3EAF0A3E9F08F
:10023A00E4FB9001D6E0FE9001D8E06E7003020361
:10024A00D99001D7E0FDB4080040030203D9900217
:10025A005FF82828730202770202AA0202DC02036C
:10026A000802033802036702039C0203A99001D61D
:10027A00E0FC24DAF582E43401F583E0FB74DA2C3D
:10028A00F582E43401F583E4F0EE0454079001D6D4
:10029A00F0EB644760030203D9ED045407A3F0228C
:1002AA009001D6E0FF24DAF582E43401F583E0FB1D
:1002BA0074DA2FF582E43401F583E4F09001D6E094
:1002CA00045407F0EBB44F02802E9001D7E01402D9
:1002DA0003D69001D6E024DAF582E43401F583E00E
:1002EA00FF9001D0E0FBA3E0FAA3E0F9EF12066F5A
:1002FA009001D6E0045407F0A3E0040203D690016B
:10030A00D6E0FF24DAF582E43401F583E0FE9001B9
:10031A00D0E0FBA3E0FAA3E0F9900001EE12068117
:10032A00EF0454079001D6F0A3E0040203D690012B
:10033A00D6E0FF24DAF582E43401F583E0FE900189
:10034A00D0E0FBA3E0FAA3E0F9900002EE120681E6
:10035A00EF0454079001D6F0A3E004806F9001D611
:10036A00E0FF24DAF582E43401F583E0FE9001D05F
:10037A00E0FBA3E0FAA3E0F9900003EE120681EF96
:10038A000454079001D6F0A3E0045407F07F340226
:10039A000D2B9001D6E0045407F0A3E004802D90C1
:1003AA0001D6E0FF24DAF582E43401F583E0FE9019
:1003BA0001D0E0FBA3E0FAA3E0F9900004EE1206F4
:0F03CA0081EF0454079001D6F0A3E0045407F02C
:0103D9002201
:1007C30012022F7F47120D2B7F4F120D2B9001CD5D
:1007D300E0FBA3E0FAA3E0F91205D4FF120D2B907E
:1007E30001CDE0FBA3E0FAA3E0900001120D2690F7
:1007F30001CDE0FBA3E0FAA3E0900002120D2690E6
:1008030001CDE0FBA3E0FAA3E0F9900003120D276A
:100813009001CDE0FBA3E0FAA3E0F9900004120DF0
:10082300279001CDE0FBA3E0FAA3E0F9120C1D022F
:020833000D2B8B
:100C1D009000011205EDFF1205D42FFF9000021276
:100C2D0005ED2FFF9000031205ED2FFF900004122C
:040C3D0005ED2FFF93
:010C41002290
:050D2600F91205EDFFCC
:0C0D2B00C2AC8F993099FDC299D2AC2265
:090D56003098037F01227F002286
:03000000020737BD
:0C073700787FE4F6D8FD75810702077E8C
:1005D400BB010689828A83E0225002E722BBFE0225
:0905E400E32289828A83E4932258
:1005ED00BB010CE58229F582E5833AF583E02250C3
:1005FD0006E92582F8E622BBFE06E92582F8E2220D
:0D060D00E58229F582E5833AF583E4932226
:10061A00BB010989828A83F8E028F022500327F770
:10062A0022BBFE05F8E328F3228A838982F8E49341
:02063A00282274
:10063C00BB010FF8E58229F582E5833AF583E028C2
:10064C00F0225009C58229F8E58226F622BBFE0964
:10065C00C58229F8E22582F222F8EA2583F583E99E
:03066C00932822AE
:10066F00BB010689828A83F0225002F722BBFE016A
:02067F00F32264
:10068100F8BB010DE58229F582E5833AF583E8F0AF
:10069100225006E92582C8F622BBFE05E92582C85B
:0206A100F22243
:10074300020835E493A3F8E493A34003F68001F28F
:1007530008DFF48029E493A3F85407240CC8C333B7
:10076300C4540F4420C8834004F456800146F6DF86
:10077300E4800B0102040810204080900026E47EF0
:10078300019360BCA3FF543F30E509541FFEE4937B
:10079300A360010ECF54C025E060A840B8E493A342
:1007A300FAE493A3F8E493A3C8C582C8CAC583CA6D
:1007B300F0A3C8C582C8CAC583CADFE9DEE780BE25
:01022E0000CF
:00000001FF
