:10008F00055C6666666600205408313A36362032C3
:10009F003A363620333A363620343A363620003563
:1000AF003A363620583A464620593A464620503A74
:1000BF0046462000423A46462050494C453A2D2D9F
:1000CF002020202020202020003035207365713A19
:0E00DF003020737465703A30204F66664C0016
:100296001202B81200FA7B007A0079081201E18096
:0102A600FE59
:0F022E00D2B47F017E0012023DD2B57F017E0067
:10023D00D3EF9400EE94004007EF1F70F31E80F093
:01024D00228E
:1002A70012022EC2B4120239C2B57F017E000202C9
:0102B7003D09
:1002DA00C2B4C2B5120230D2B47F017E0002023D1E
:10026D00C2B5BFFF04D2B48002C2B4120230C2B50F
:07027D007F017E0002023D3B
:100284007DFF12022E20B402E4FDC2B5120239AF82
:010294000564
:010295002246
:02018B00AD07BE
:10018D00E4FBFAE4FCED5480FFBF80027CFFAF047A
:10019D0012026D120239ED25E0FD0BBB00010AEBD9
:0801AD0064084A70DE120284AE
:0101B5002227
:0201B600AC0794
:1001B800E4FBF582F583EB25E0FB120284AD071220
:1001C8000239BDFF03430301A3E582640845837038
:0801D800E5AF0412026DAF0354
:0101E00022FC
:1002B800759850438920758DFF438780D28ED299D7
:0102C8002213
:0C00ED000272800002708001026E80022E
:1000FA00E4FFFE0FBF00010EBE2EF8BFE0F51202AC
:10010A00C98573828572837438F01202C985738235
:10011A00857283740CF01202EA1202C98573828511
:05012A0072837406F071
:01012F0022AD
:100209008F6B8D6C8B6D1202C9AF6C12024EE56D4E
:100219002F857382857283F01202C9856F82856E7C
:0502290083E56BF022EB
:080130008B668A6789688D69FE
:10013800E4F56AF56AAB66AA67A968856A82758379
:100148000012015EFFAB6AAD69120209056AE56A31
:05015800C3941440E017
:01015D00227F
:0601E1008B628A63896451
:1001E700E4F565E56575F015A4AB622564F9E5638B
:1001F70035F0FAAD651201300565E565C394044035
:01020700E214
:0102080022D3
:0D02EA001202C98573828572837401F022AF
:1002C900857182857083E020E7F6E4FF0FBF0AFCA1
:0102D9002202
:10024E00EF14600E14600F1460102403700E7E8085
:0E025E00800A7EC080067E9480027ED4AF06A9
:01026C00226F
:03000000020003F8
:0C000300787FE4F6D8FD75817302004A96
:10015E00BB010CE58229F582E5833AF583E0225056
:10016E0006E92582F8E622BBFE06E92582F8E222A0
:0D017E00E58229F582E5833AF583E49322BA
:10000F00020296E493A3F8E493A34003F68001F26F
:10001F0008DFF48029E493A3F85407240CC8C333F2
:10002F00C4540F4420C8834004F456800146F6DFC1
:10003F00E4800B010204081020408090008FE47EC2
:10004F00019360BCA3FF543F30E509541FFEE493B6
:10005F00A360010ECF54C025E060A840B8E493A37D
:10006F00FAE493A3F8E493A3C8C582C8CAC583CAA8
:10007F00F0A3C8C582C8CAC583CADFE9DEE780BE60
:0100F9000006
:00000001FF
