:0F000300D2B47F017E00120012D2B57F017E00C1
:10001200D3EF9400EE94004007EF1F70F31E80F0C0
:0100220022BB
:100BDD00120003C2B412000EC2B57F017E000200E6
:010BED0012F5
:100BFF00C2B4C2B5120005D2B47F017E000200124A
:100B7200C2B5EFB4FF04D2B48002C2B4120005C2FF
:080B8200B57F017E00020012A4
:100BB9007DFF12000320B402E4FDC2B512000EAF9E
:010BC9000526
:010BCA002208
:020AEE00AD0752
:100AF000E4FBFAE4FCED5480B480027CFFAF041206
:100B00000B7212000EED25E0FD0BBB00010AEB6439
:070B1000084A70DF120BB967
:010B170022BB
:020AC100A90783
:100AC300E4FCFBFAEC25E0FC120BB9AD0712000EB7
:100AD300EDB4FF04EC4401FC0BBB00010AEB64081A
:0A0AE3004A70E1AF01120B72AF047C
:010AED0022E6
:0F0026004201D680004201D480014201D2800203
:1008AB00E4FFFE0FBF00010EBE2EF8BFE0F5120BEA
:1008BB00A29001D6E0FEA3E0F5828E837438F0128D
:1008CB000BA29001D6E0FEA3E0F5828E83740CF0B0
:1008DB00120BCB120BA29001D6E0FEA3E0F5828E99
:0408EB00837406F01C
:0108EF0022E6
:100975009001EBEFF0A3EDF0A3EBF0120BA29001C9
:10098500ECE0FF120B399001EDE02FFF9001D6E06E
:10099500FCA3E0F5828C83EFF0120BA29001EBE053
:0F09A500FF9001D2E0FCA3E0F5828C83EFF022FB
:0E0933009001DEEBF0A3EAF0A3E9F0A3EDF0F3
:10094100E4A3F0F09001DEE0FBA3E0FAA3E0F9906C
:1009510001E2E0FEF582758300120735FF9001E1A7
:10096100E0FDAB061209759001E2E004F0E0C394EA
:030971001440D15E
:010974002260
:0B09B4009001E3EBF0A3EAF0A3E9F0F0
:1009BF00E4A3F09001E6E0FFC394045024EF75F038
:1009CF0015A4FF9001E3E0FBA3E0FAA3E02FF9EAFF
:1009DF0035F0FAA3E0FD1209339001E6E004F08050
:0109EF00D235
:0109F00022E4
:100BCB00120BA29001D6E0FEA3E0F5828E83740196
:020BDB00F02206
:100BA2009001D4E0FEA3E0F5828E83E020E7F1E439
:060BB200FF0FEFB40AFB87
:010BB800221A
:100B3900EF14600E14600F1460102403700E7E8091
:0E0B4900800A7EC080067E9480027ED4AF06B5
:010B5700227B
:1000350045000A6666666600450003FFFFFFFFFF91
:1000450041000F0342000100054200080000440082
:100055001066664C004100000060540172313A366A
:100065003620323A363620333A363620343A36366A
:100075002000353A363620583A464620593A464603
:1000850020503A46462000423A464620504F4944C1
:100095003A2D2D20202020202020200030352073CF
:1000A50065713A3020737465703A30204F66664C3E
:1000B50000615E0014FFFFFFFFFFFFFFFFFFFFFF73
:1000C500FFFFFFFFFFFFFFFFFFFFFFFFFFFFFFFF3B
:1000D500FFFFFFFFFFFFFFFFFFFFFFFFFFFFFFFF2B
:1000E500FFFFFFFFFFFFFFFFFFFFFFFFFFFFFFFF1B
:1000F500FFFFFFFFFFFFFFFFFFFFFFFFFFFFFFFF0B
:10010500FFFFFFFFFFFFFFFFFFFFFFFFFFFFFFFFFA
:10011500FFFFFFFFFFFFFFFFFFFFFFFFFFFFFFFFEA
:10012500FFFFFFFFFFFFFFFFFFFFFFFFFFFFFFFFDA
:10013500FFFFFFFFFFFFFFFFFFFFFFFFFFFFFFFFCA
:10014500FFFFFFFFFFFFFFFFFFFFFFFFFFFFFFFFBA
:10015500FFFFFFFFFFFFFFFFFFFFFFFFFFFFFFFFAA
:10016500FFFFFFFFFFFFFFFFFFFFFFFFFFFFFFFF9A
:10017500FFFFFFFFFFFFFFFFFFFFFFFFFFFFFFFF8A
:10018500FFFFFFFFFFFFFFFFFFFFFFFFFFFFFFFF7A
:10019500FFFFFFFFFFFFFFFFFFFFFFFFFFFFFFFF6A
:1001A500FFFFFFFFFFFFFFFFFFFFFFFFFFFFFFFF5A
:1001B500FFFFFFFFFFFFFFFFFFFFFFFFFFFFFFFF4A
:1001C500FFFFFFFFFFFFFFFFFFFFFFFFFFFFFFFF3A
:1001D500FFFFFFFFFFFFFFFFFFFFFFFFFFFFFFFF2A
:1001E500FFFFFFFFFFFFFFFFFFFFFFFFFFFFFFFF1A
:1001F500FFFFFFFFFFFFFFFFFFFFFFFFFFFFFFFF0A
:10020500FFFFFFFFFFFFFFFFFFFFFFFFFFFFFFFFF9
:03021500FFFFFFE9
:100B5800120BEE120C3D120C34EF6003120C2A7BC0
:0A0B6800017A00790312022980ECE3
:100A2B007B017A00790A1204027B017A00790312A6
:100A3B00051B7B017A00790F1205FC7B017A00798B
:100A4B00011208F07B017A0079081209F17B017A17
:060A5B00007910020858AA
:100BEE00759850438920758DFF438780D28ED29998
:010BFE0022D4
:100402009001EEEBF0A3EAF0A3E9F09001EEE0FB3D
:10041200A3E0FAA3E0F9E4FD120A617B02E4FD1213
:1004220009759001EEE0FBA3E0FAA3E0F97D011269
:100432000A617B03E4FD1209759001EEE0FBA3E083
:10044200FAA3E02401F9E43AFAE4FD120A617B0717
:10045200E4FD1209759001EEE0FBA3E0FAA3E024AB
:1004620001F9E43AFA7D01120A617B08E4FD1209FE
:10047200759001EEE0FBA3E0FAA3E02402F9E43A6E
:10048200FAE4FD120A617B0CE4FD1209759001EE9B
:10049200E0FBA3E0FAA3E02402F9E43AFA7D0112B8
:1004A2000A617B0DE4FD1209759001EEE0FBA3E009
:1004B200FAA3E02403F9E43AFAE4FD120A617B119B
:1004C200E4FD1209759001EEE0FBA3E0FAA3E0243B
:1004D20003F9E43AFA7D01120A617B12E4FD120982
:1004E200759001EEE0FBA3E0FAA3E02404F9E43AFC
:1004F200FAE4FD120A617B027D011209759001EE98
:10050200E0FBA3E0FAA3E02404F9E43AFA7D011245
:090512000A617B037D01020975F9
:10051B009001F1EBF0A3EAF0A3E9F09001F1E0FB1D
:10052B00A3E0FAA3E0F9E4FD120A617B077D011257
:10053B0009759001F1E0FBA3E0FAA3E0F97D01124C
:10054B000A617B087D011209759001F1E0FBA3E0C4
:10055B00FAA3E02401F9E43AFAE4FD120A617B0CF8
:10056B007D011209759001F1E0FBA3E0FAA3E024F1
:10057B0001F9E43AFA7D01120A617B0D7D01120942
:10058B00759001F1E0FBA3E0FAA3E02402F9E43A51
:10059B00FAE4FD120A617B117D011209759001F1DC
:1005AB00E0FBA3E0FAA3E02402F9E43AFA7D01129E
:1005BB000A617B127D011209759001F1E0FBA3E04A
:1005CB00FAA3E02403F9E43AFAE4FD120A617B0290
:1005DB007D021209759001F1E0FBA3E0FAA3E02480
:1005EB0003F9E43AFA7D01120A617B037D020209E9
:0105FB00758A
:1005FC009001F4EBF0A3EAF0A3E9F09001F4E0FB36
:10060C00A3E0FAA3E0F91207F812071CFF7B0A7D9E
:10061C00021209759001F4E0FBA3E0FAA3E0F912D1
:10062C0007F8900001120735FF7B0B7D021209754C
:10063C009001F4E0FBA3E0FAA3E0F91207F89000B4
:10064C0002120735FF7B0C7D021209759001F4E054
:10065C00FBA3E0FAA3E0F91207F8900003120735A8
:10066C00FF7B0D7D021209759001F4E0FBA3E0FA0B
:10067C00A3E0F91207F8900004120735FF7B0E7DFA
:04068C0002020975E8
:1008F0009001F7EBF0A3EAF0A3E9F09001F7E0FB39
:10090000A3E0FAA3E02401F9E43AFAE4FD120A9321
:10091000E4FB7D031209759001F7E0FBA3E0FAA365
:10092000E02401F9E43AFAE4FD120A937B017D0325
:0309300002097544
:1009F1009001FAEBF0A3EAF0A3E9F09001FAE0FB31
:100A0100A3E0FAA3E0F912071CFF7B077D0312099B
:100A1100759001FAE0FBA3E0FAA3E0F9900001125E
:0A0A21000735FF7B0E7D0302097507
:100858009001FDEBF0A3EAF0A3E9F09001FDE0FBC5
:10086800A3E0FAA3E0F912071CFF7B117D0312092C
:10087800759001FDE0FBA3E0FAA3E0F990000112F6
:100888000735FF7B127D031209759001FDE0FBA37C
:10089800E0FAA3E0F9900002120735FF7B137D030D
:0308A800020975CD
:0F0C0F005389F0438901E4F58A758C4CD28C220D
:100B8A00426C65752000566572742000526F756755
:080B9A0065004E6F6E6520003E
:100A6100ED700912071CFFC4540F8009EDB4010B8E
:100A710012071C440F900200F080069002007420BF
:100A8100F07B017A027900120B18900200EFF0E07E
:010A9100FF65
:010A92002241
:100A9300ED700B12071C75F00A84E5F08018EDB4B5
:100AA300010912071C75F00A84800BEDB4020C12C5
:0D0AB300071C75F064842430FF80027F2052
:010AC0002213
:0B07F8009001D8EBF0A3EAF0A3E9F0B9
:1008030012071CFF70109001DB74FFF0A3740BF050
:10081300A3748AF08033EFB401109001DB74FFF00E
:10082300A3740BF0A37490F0801FEF9001DBB4026C
:100833000D74FFF0A3740BF0A37496F0800B74FF98
:10084300F0A3740BF0A3749CF09001DBE0FBA3E036
:04085300FAA3E0F92B
:01085700227E
:100B180012071CFED394095006EE2430FF801112F0
:100B2800071CFED3940F5006EE2431FF80027F206D
:010B3800229A
:100218004101C8004101C6004101C7004101C900B0
:050C3D00D2ACD2AF2291
:030023000207963B
:10079600C0E0C0F0C083C082C0D075D000C000C029
:1007A60001C002C003C004C005C006C007309822BD
:1007B600120C429001C9EFF09001C8E0FE24CAF580
:1007C60082E43401F583EFF0EE0454079001C8F09B
:1007D600C298309902C299D007D006D005D004D06D
:1007E60003D002D001D000D0D0D082D083D0F0D0B8
:0207F600E032EF
:020C4200AF9968
:010C4400228D
:0B0229009001E7EBF0A3EAF0A3E9F07E
:10023400E4A3F09001C6E0FF9001C8E06F700302F0
:1002440004019001C7E0FEB40800400302040190D9
:10025400025AF82828730202720202AD0202EC026A
:10026400031D0203520203860203BA0203CC900167
:10027400C6E0FD24CAF582E43401F583E0FC900174
:10028400EAF074CA2DF582E43401F583E4F0EF0456
:1002940054079001C6F0EC64476003020401EE04C5
:1002A4005407A3F07F470203FE9001C6E0FF24CA6F
:1002B400F582E43401F583E0FE9001EAF074CA2F7C
:1002C400F582E43401F583E4F09001C6E0045407B8
:1002D400F0BE4F0BA3E0045407F07F4F0203FE90DF
:1002E40001C7E0145407F0229001C6E024CAF58245
:1002F400E43401F583E0FF9001E7E0FBA3E0FAA317
:10030400E0F9EF1207629001C6E0045407F0A3E09D
:10031400045407F07F310203FE9001C6E0FF24CAB3
:10032400F582E43401F583E0FE9001E7E0FBA3E00D
:10033400FAA3E0F9900001EE120774EF0454079059
:1003440001C6F0A3E0045407F07F320203FE9001DB
:10035400C6E0FF24CAF582E43401F583E0FE90018F
:10036400E7E0FBA3E0FAA3E0F9900002EE120774C1
:10037400EF0454079001C6F0A3E0045407F07F3360
:1003840080789001C6E0FF24CAF582E43401F58345
:10039400E0FE9001E7E0FBA3E0FAA3E0F99000039C
:1003A400EE120774EF0454079001C6F0A3E004545E
:1003B40007F07F3480449001C6E0045407F0A3E0C2
:1003C400045407F07F3580329001C6E0FF24CAF55B
:1003D40082E43401F583E0FE9001E7E0FBA3E0FA58
:1003E400A3E0F9900004EE120774EF04540790019F
:0D03F400C6F0A3E0045407F07F36120C1E83
:0104010022D8
:0C0C1E00C2AC8F993099FDC299D2AC2273
:090C34003098037F01227F0022A9
:0300000002069065
:0C069000787FE4F6D8FD7581070206D7DC
:10071C00BB010689828A83E0225002E722BBFE02DB
:09072C00E32289828A83E493220E
:10073500BB010CE58229F582E5833AF583E0225079
:1007450006E92582F8E622BBFE06E92582F8E222C3
:0D075500E58229F582E5833AF583E49322DD
:10076200BB010689828A83F0225002F722BBFE0176
:02077200F32270
:10077400F8BB010DE58229F582E5833AF583E8F0BB
:10078400225006E92582C8F622BBFE05E92582C867
:02079400F2224F
:0A0C2A003098FDAF99C2987E0022B9
:10069C00020B58E493A3F8E493A34003F68001F211
:1006AC0008DFF48029E493A3F85407240CC8C3335F
:1006BC00C4540F4420C8834004F456800146F6DF2E
:1006CC00E4800B0102040810204080900026E47E98
:1006DC00019360BCA3FF543F30E509541FFEE49323
:1006EC00A360010ECF54C025E060A840B8E493A3EA
:1006FC00FAE493A3F8E493A3C8C582C8CAC583CA15
:10070C00F0A3C8C582C8CAC583CADFE9DEE780BECC
:0102280000D5
:00000001FF
