:08149B0066664C006E4C200057
:100C3B00450064666666660043005400000045008C
:100C4B005CFFFFFFFFFF41006303420057000542BB
:100C5B0000610000430059FF149B60540000313ABF
:100C6B00363620323A363620333A363620343A3658
:100C7B00362000353A363620583A464620593A4601
:100C8B004620503A46462000423A464620506F696D
:100C9B00643A417563756E2020202020003035208A
:100CAB007365713A3020737465703A30204F666605
:020CBB004C00EB
:1005570012146A1210B712148C7B017A00790012F8
:10056700127E1214BB1214B5EF70030205FB1214AE
:10057700A3EF700302062790006C7401F0A37400C8
:10058700F0A37462F0E4121181900064EFF0900020
:100597006C7401F0A37400F0A37462F0A37401F00B
:1005A700FB121185900065EFF090006C7401F0A3C9
:1005B7007400F0A37462F07402121181900066EF68
:1005C700F090006C7401F0A37400F0A37462F074EF
:1005D70003121181900067EFF090006C7401F0A393
:1005E7007400F0A37462F0A374041211829000687F
:1005F700EFF0802C1211C190006C7401F0A374000D
:10060700F0A37457F0A37401F0A37400F0A374640B
:10061700F0A37401F0A37400F0A37461F01203ED6A
:10062700308D097B017A00795412141B900054E035
:10063700D394054010E4F090005974FFF0A37414AC
:10064700F0A3749BF0900055E0D394034005E4F0C9
:100657001212BB900056E0D394274023E4F07B01AD
:1006670090006C04F0A37400F0A37461F0A3EBF0A6
:10067700A37400F0A37463F07A00795C1200261269
:1006870014A3EF601FE4900054F090005974FFF03A
:10069700A37414F0A3749FF01214A97B017A007954
:1006A70064120E017B017A00795C12081302056C53
:1012BB007B017A00796412096C7B017A00795C12EC
:1012CB000A857B017A007963120D847B017A0079A0
:1012DB00571210FC7B017A00796112124090005971
:0B12EB00E0FBA3E0FAA3E0F9020F3DD6
:08118100A3F07B017A00796103
:101189001206B7FF7E007C007D32120786AC06ADE1
:101199000790006CE0FBA3E0FAA3E0F91206B7752B
:1011A900F005A42DFFEC35F0FE90006FE07C002FD8
:0711B900FFEC3EFE12107274
:0111C000220C
:10143200D2941213D4C2941213D6C2957F027E00A4
:031442000213DAB8
:10144500C294C2951213D61213D4D2947F027E0091
:031455000213DAA5
:1013BC00EF6004D2948002C2941213D61213D4C2DA
:0813CC00957F027E000213DA96
:10134A009000777401F0D2941213D61213D4209419
:10135A0005E4900077F0C2951213D6900077E0FF6B
:01136A002260
:05102B00900073EFF0DE
:10103000E4A3F0A3F0900073E030E7047F018002A6
:10104000E4FF1213BC900073E0FF25E0F090007500
:10105000E004F07006900074E004F0C3900075E0C6
:101060009408900074E06480948040C9D295121373
:011070004A35
:01107100225C
:050FDE00900073EFF02C
:100FE300E4A3F0A3F0A3F0900074E0FF25E0F01277
:100FF300134AEF6006900074E004F0900076E0047A
:10100300F07006900075E004F0C3900076E0940859
:10101300900075E06480948040CD900073E0FF12EF
:0710230013BC900074E0FF14
:01102A0022A3
:08107200900070EEF0A3EFF016
:10107A00E4A3F01214327FA012102B900070E0FF4C
:10108A00900072F012102B900070A3E0FFA3F012F0
:10109A00102B1214327FA112102B7F01120FDE9037
:0C10AA000072EFF0121445900072E0FF9D
:0110B6002217
:0613D400D2957F027E00AD
:1013DA00E4FDFCC3ED9FEC9E50070DBD00010C809F
:0113EA00F210
:0113EB0022DF
:100CBD005000823132334134353642373839432A88
:030CCD003023448D
:1011C1009000697420F0E4FF20922E1214327F29DE
:1011D10012102BEF600280217FFF120FDE90006959
:1011E100EFF0121445900069E0540F2482F582E477
:0F11F1003400F583E0900069F07B017A007969A2
:0112000022CB
:1003ED001206B71207ED049E2304842A0466300416
:1003FD001B3104293204383304473404563504C5FF
:10040D004104CA42050143053144000005569000E0
:10041D006CE0FBA3E0FAA3E0F9E4803A90006CE015
:10042D00FBA3E0FAA3E0F97401802B90006CE0FBD4
:10043D00A3E0FAA3E0F97402801C90006CE0FBA32A
:10044D00E0FAA3E0F97403800D90006CE0FBA3E0EB
:10045D00FAA3E0F9740402075290006CE0FBA3E0EC
:10046D00FAA3E0F99000011206D02404FFE433FE54
:10047D007C007D1402054C90006FE0F9A3E0FAA317
:10048D00E0900078C9F0A3EAF0A3E9F0A374FF802F
:10049D001890006FE0F9A3E0FAA3E0900078C9F09E
:1004AD00A3EAF0A3E9F0A37401F090006CE0FBA3C4
:1004BD00E0FAA3E0F90202697F050214AF90006F24
:1004CD00E0FBA3E0FAA3E0F9741012075290006F5D
:1004DD00E0FBA3E0FAA3E0F9900001744C1207646D
:1004ED00900002E4120764900003745512076490A3
:1004FD000004802D900072E0FBA3E0FAA3E0F91256
:10050D0006B72401FFE433FE7C007D07120798ED4A
:10051D00120752900072E0FBA3E0FAA3E0F99000FD
:10052D0001E48022900072E0FBA3E0FAA3E0F990D1
:10053D0000011206D02401FFE433FE7C007D0A1277
:0A054D000798900001ED12076422E8
:10026900900075EBF0A3EAF0A3E9F0900075E0FBCC
:10027900A3E0FAA3E0F91206B71460501470030260
:10028900031B1470030203611470030203A6240400
:1002990060030203EC9000011206D0FF90007BE09E
:1002A900FEEF8EF0A4FF900078E0FBA3E0FAA3E054
:1002B900F9EF1206FD90007F7401F0A37400F0A31A
:1002C900747BF0900078A3A3E00203E9900075E045
:1002D900FBA3E0FAA3E0F99000011206D0FF900019
:1002E9007BE0FEEF8EF0A4FF900078E0FBA3E0FA3C
:1002F900A3E0F9900001EF12071FE92401F9E43A9C
:10030900FA90007F7401F0A37400F0A3747BF002EB
:1003190003E9900075E0FBA3E0FAA3E0F99000017E
:100329001206D0FF90007BE0FEEF8EF0A4FF900054
:1003390078E0FBA3E0FAA3E0F9900002EF12071FAF
:10034900E92402F9E43AFA90007F7401F0A37400F9
:10035900F0A3747BF00203E9900075E0FBA3E0FAD7
:10036900A3E0F99000011206D0FF90007BE0FEEFB8
:100379008EF0A4FF900078E0FBA3E0FAA3E0F990E7
:100389000003EF12071FE92403F9E43AFA90007F0A
:100399007401F0A37400F0A3747BF080439000759E
:1003A900E0FBA3E0FAA3E0F99000011206D0FF9068
:1003B900007BE0FEEF8EF0A4FF900078E0FBA3E065
:1003C900FAA3E0F9900004EF12071FE92404F9E405
:1003D9003AFA90007F7401F0A37400F0A3747BF0E3
:0403E900120F90223D
:100F900090007CEBF0A3EAF0A3E9F0A3E0FBA3E070
:100FA000FAA3E0F91206B7FFB4011790007CE0FB4A
:100FB000A3E0FAA3E0F91206B7D394CD400474CDB0
:100FC0008018EFB4FF1790007CE0FBA3E0FAA3E0E9
:0E0FD000F91206B7D394CD4004E41207522262
:0F0CD0004200A380004200A1800142009F8002E9
:1010B700E4FFFE0FBF00010EBE2EF8BFE0F51214CD
:1010C700049000A3E0FEA3E0F5828E837438F0124B
:1010D70014049000A3E0FEA3E0F5828E83740CF065
:1010E7001214581214049000A3E0FEA3E0F5828EB8
:0410F700837406F008
:0110FB0022D2
:10120100900072EFF0A3EDF0A3EBF0121404900044
:1012110073E0FF120003900074E02FFF9000A3E041
:10122100FCA3E0F5828C83EFF0121404900072E0CD
:0F123100FF90009FE0FCA3E0F5828C83EFF0229A
:0E113F0090006DEBF0A3EAF0A3E9F0A3EDF051
:10114D00E4A3F0F090006DE0FBA3E0FAA3E0F990CA
:10115D000071E0FEF5827583001206D0FF900070DD
:10116D00E0FDAB06121201900071E004F0E0C394B3
:03117D001440D14A
:01118000224C
:0B127E00900069EBF0A3EAF0A3E9F098
:10128900E4A3F090006CE0FFC394045024EF75F0E0
:1012990015A4FF900069E0FBA3E0FAA3E02FF9EAA7
:1012A90035F0FAA3E0FD12113F90006CE004F080E4
:0112B900D262
:0112BA002211
:101458001214049000A3E0FEA3E0F5828E837401C9
:02146800F02270
:101404009000A1E0FEA3E0F5828E83E020E7F1E402
:06141400FF0FEFB40AFB1C
:01141A0022AF
:10000300EF14600E14600F1460102403700E7E80D2
:0E001300800A7EC080067E9480027ED4AF06F6
:0100210022BC
:10146A00759850438920758DFD438780D28ED29915
:01147A00224F
:10096C00900069EBF0A3EAF0A3E9F0900069E0FBDA
:10097C00A3E0FAA3E0F9E4FD12136B7B02E4FD1291
:10098C001201900069E0FBA3E0FAA3E0F97D0112EB
:10099C00136B7B03E4FD121201900069E0FBA3E0F2
:1009AC00FAA3E02401F9E43AFAE4FD12136B7B0795
:1009BC00E4FD121201900069E0FBA3E0FAA3E0242D
:1009CC0001F9E43AFA7D0112136B7B08E4FD121273
:1009DC0001900069E0FBA3E0FAA3E02402F9E43AF9
:1009EC00FAE4FD12136B7B0CE4FD1212019000690A
:1009FC00E0FBA3E0FAA3E02402F9E43AFA7D011249
:100A0C00136B7B0DE4FD121201900069E0FBA3E077
:100A1C00FAA3E02403F9E43AFAE4FD12136B7B1118
:100A2C00E4FD121201900069E0FBA3E0FAA3E024BC
:100A3C0003F9E43AFA7D0112136B7B12E4FD1212F6
:100A4C0001900069E0FBA3E0FAA3E02404F9E43A86
:100A5C00FAE4FD12136B7B027D0112120190006906
:100A6C00E0FBA3E0FAA3E02404F9E43AFA7D0112D6
:090A7C00136B7B037D01021201E2
:100A8500900069EBF0A3EAF0A3E9F0900069E0FBC0
:100A9500A3E0FAA3E0F9E4FD12136B7B077D0112D5
:100AA5001201900069E0FBA3E0FAA3E0F97D0112D1
:100AB500136B7B087D01121201900069E0FBA3E036
:100AC500FAA3E02401F9E43AFAE4FD12136B7B0C76
:100AD5007D01121201900069E0FBA3E0FAA3E02476
:100AE50001F9E43AFA7D0112136B7B0D7D011212B7
:100AF50001900069E0FBA3E0FAA3E02402F9E43ADF
:100B0500FAE4FD12136B7B117D011212019000694D
:100B1500E0FBA3E0FAA3E02402F9E43AFA7D01122E
:100B2500136B7B127D01121201900069E0FBA3E0BB
:100B3500FAA3E02403F9E43AFAE4FD12136B7B020D
:100B45007D02121201900069E0FBA3E0FAA3E02404
:100B550003F9E43AFA7D0112136B7B037D0202125D
:010B6500018E
:100D8400120EDD900069EBF0A3EAF0A3E9F012067D
:100D9400B7FF7B0A7D02121201900069E0FBA3E019
:100DA400FAA3E0F99000011206D0FF7B0B7D02123A
:100DB4001201900069E0FBA3E0FAA3E0F9900002BD
:100DC4001206D0FF7B0C7D02121201900069E0FB39
:100DD400A3E0FAA3E0F99000031206D0FF7B0D7D97
:100DE40002121201900069E0FBA3E0FAA3E0F9907B
:0D0DF40000041206D0FF7B0E7D02021201EA
:1010FC00900069EBF0A3EAF0A3E9F0900069E0FB43
:10110C00A3E0FAA3E02401F9E43AFA7D011212F605
:10111C00E4FB7D03121201900069E0FBA3E0FAA34B
:10112C00E02401F9E43AFA7D021212F67B017D0308
:03113C000212019B
:10124000900069EBF0A3EAF0A3E9F0900069E0FBFD
:10125000A3E0FAA3E0F91206B72430FF7B077D0371
:10126000121201900069E0FBA3E0FAA3E0F99000FC
:0E127000011206D02430FF7B0E7D0302120116
:100F3D00900069EBF0A3EAF0A3E9F0900069E0FB03
:100F4D00A3E0FAA3E0F91206B7FF7B117D0312129D
:100F5D0001900069E0FBA3E0FAA3E0F99000011213
:100F6D0006D0FF7B127D03121201900069E0FBA3F6
:100F7D00E0FAA3E0F99000021206D0FF7B137D0387
:030F8D000212014C
:0F148C005389F0438901E4F58A758C4CD28C2288
:10141B00C28D74011206FD900001740112071F901A
:07142B000002740102071F1B
:1013EC00426C65752000566572742000526F7567EB
:0813FC006500417563756E0088
:10136B00ED70071206B7FEC48007EDB40108120634
:0B137B00B7540FFF80027F2012138781
:011386002244
:1012F600ED70081206B775F064800AEDB4010912A4
:1013060006B775F00A84800DEDB4020E1206B775A5
:0C131600F00A84E5F02430FF80027F2004
:0113220022A8
:0B0EDD0090006CEBF0A3EAF0A3E9F03A
:100EE8001206B7FF701090006F74FFF0A37413F030
:100EF800A374ECF08033EFB4011090006F74FFF02E
:100F0800A37413F0A374F2F0801FEF90006FB40283
:100F18000D74FFF0A37413F0A374F8F0800B74FF42
:100F2800F0A37413F0A374FEF090006FE0FBA3E04D
:040F3800FAA3E0F93F
:010F3C002292
:10138700EFD394095006EF2430FF800EEFD3940F6C
:0B1397005006EF2437FF80027F202269
:100CDF0041009500410093004100940041009600AF
:040CEF00410092002E
:0514BB00D2ACD2AF220B
:03002300020E7B4F
:100E7B00C0E0C0F0C083C082C0D075D000C000C03D
:100E8B0001C002C003C004C005C006C007309822D1
:100E9B001214C0900096EFF0900095E0FE2497F5A9
:100EAB0082E43400F583EFF0EE045407900095F0E4
:100EBB00C298309902C299D007D006D005D004D081
:100ECB0003D002D001D000D0D0D082D083D0F0D0CC
:020EDB00E03203
:0214C000AF99E2
:0114C2002207
:10081300E4FF900093E0FE900095E06E7003020900
:100823006B900094E0B40800400302096B90083712
:10083300F828287302084F02087D0208AF0208CD8A
:100843000208EF020911020933020942900093E002
:10085300FD2497F582E43400F583E0FF74972DF5CA
:1008630082E43400F583E4F0EE045407900093F03F
:10087300EF6447600302096B804B900093E0FE2412
:1008830097F582E43400F583E0FF74972EF582E454
:100893003400F583E4F0900093E0045407F0EFB4E0
:1008A3004F028021900094E01402093E900093E0EF
:1008B3002497F582E43400F583E012075290009305
:1008C300E0045407F0A3E0048071900093E0FF2458
:1008D30097F582E43400F583E0900001120764EF9A
:1008E300045407900093F0A3E004804F900093E03A
:1008F300FF2497F582E43400F583E09000021207A9
:1009030064EF045407900093F0A3E004802D90005B
:1009130093E0FF2497F582E43400F583E09000032D
:10092300120764EF045407900093F0A3E004800BD4
:10093300900093E0045407F0A3E0045407F02290DE
:100943000093E0FF2497F582E43400F583E0900000
:1009530004120764EF045407900093F0A3E00454D7
:0809630007F09000927401F00E
:01096B002269
:100E0100900069EBF0A3EAF0A3E9F07F47121480A8
:100E11007F4F121480900069E0FBA3E0FAA3E0F990
:100E21001206B7FF121480900069E0FBA3E0FAA359
:100E3100E090000112147B900069E0FBA3E0FAA3AB
:100E4100E090000212147B900069E0FBA3E0FAA39A
:100E5100E0F990000312147C900069E0FBA3E0FA32
:100E6100A3E0F990000412147C900069E0FBA3E078
:0A0E7100FAA3E0F912132302148023
:101323009000011206D0FF1206B724962FFF9000FB
:10133300021206D02FFF9000031206D02FFF900059
:06134300041206D02FFF8A
:011349002281
:05147B00F91206D0FF8C
:0C148000C2AC8F993099FDC299D2AC2209
:0614A300900092E0FF2220
:0614A900E4900092F02225
:040CF3004100A50017
:10002600900069EBF0A3EAF0A3E9F09000A5E0B434
:1000360007004003020268900044F8282873020073
:100046005902007C0200FF0201260201810201B56D
:100056000201DD90006CE0F9A3E0FAA3E0900075E0
:10006600C9F0A3EAF0A3E9F0900069E0FBA3E0FA87
:10007600A3E0F9020B6690006CE0FBA3E0FAA3E0B4
:10008600F9900001740112071F9000011206D06456
:1000960004600302026890006CE0FBA3E0FAA3E0B0
:1000A600F9740312075290006CE0FBA3E0FAA3E098
:1000B600F9900001E41207649000A57402F0900024
:1000C60069E0FBA3E0FAA3E0F99000021206D0D3A0
:1000D60094C7500302026890006CE0FBA3E0FAA309
:1000E600E0F9740412075290006CE0FBA3E0FAA357
:1000F600E0F99000017405807890006CE0FBA3E0C5
:10010600FAA3E0F9900001740112071F9000011292
:1001160006D0640260030202689000A57403F02210
:10012600900069E0FBA3E0FAA3E02403F9E43AFABD
:100136001213A290006CE0FBA3E0FAA3E0F9EF1221
:10014600075290006CE0FBA3E0FAA3E0F91206B7B1
:1001560024FCFF90006FE0FBA3E0FAA3E0F9EF12A6
:10016600075290006CE0FBA3E0FAA3E0F9900001CF
:10017600E41207649000A57404F02290006CE0FB82
:10018600A3E0FAA3E0F9900001740112071F9000A2
:10019600011206D0640660030202689000A5F09082
:1001A600006FE0FBA3E0FAA3E0F9740402075290A3
:1001B600006CE0FBA3E0FAA3E0F9E412075290001A
:1001C6006CE0FBA3E0FAA3E0F9900001E4120764F7
:1001D6009000A57406F02290006CE0FBA3E0FAA361
:1001E600E0F9900001740112071F9000011206D079
:1001F600C39404401790006CE0FBA3E0FAA3E0F977
:1002060074011206FD900001E412076490006CE090
:10021600FBA3E0FAA3E0F91206B7FFB403187404CF
:1002260012075290006CE0FBA3E0FAA3E0F99000FD
:10023600017405020764EFC39404402690006CE045
:10024600FBA3E0FAA3E0F9E412075290006CE0FB8E
:10025600A3E0FAA3E0F9900001E4120764E4900039
:03026600A5F022DE
:100B6600900072EBF0A3EAF0A3E9F0900072E0FBCC
:100B7600A3E0FAA3E0F91206B7FFC394004026EFFC
:100B8600D3946050209000011206D0FFC394004019
:100B960014EFD39470500E900075E0FBA3E0FAA317
:100BA600E0F9E48074900072E0FBA3E0FAA3E0F9B8
:100BB6001206B7FFC394604027EFD394A05021904C
:100BC60000011206D0FFC394C04015EFD394FF5026
:100BD6000F900075E0FBA3E0FAA3E0F974018039F9
:100BE600900072E0FBA3E0FAA3E0F91206B7FFC398
:100BF60094A04040EFD394FF503A9000011206D0E3
:100C0600FFC39470402EEFD394C05028900075E037
:100C1600FBA3E0FAA3E0F97402120752900075E014
:100C2600FBA3E0FAA3E0F9900001E4120764900048
:050C3600A57401F0228D
:1013A2001206B7FEC3944050047F04800CEEC3942F
:0913B2007050047F0580027F06E3
:0113BB00220F
:0614AF009000A5EFF02201
:0614B5009000A5E0FF22FB
:03000000020CF8F7
:0C0CF800787FE4F6D8FD758107020D3FFF
:1006B700BB010689828A83E0225002E722BBFE0241
:0906C700E32289828A83E4932274
:1006D000BB010CE58229F582E5833AF583E02250DF
:1006E00006E92582F8E622BBFE06E92582F8E22229
:0D06F000E58229F582E5833AF583E4932243
:1006FD00BB010989828A83F8E028F022500327F78D
:10070D0022BBFE05F8E328F3228A838982F8E4935D
:02071D00282290
:10071F00BB010FF8E58229F582E5833AF583E028DE
:10072F00F0225009C58229F8E58226F622BBFE0980
:10073F00C58229F8E22582F222F8EA2583F583E9BA
:03074F00932822CA
:10075200BB010689828A83F0225002F722BBFE0186
:02076200F32280
:10076400F8BB010DE58229F582E5833AF583E8F0CB
:10077400225006E92582C8F622BBFE05E92582C877
:02078400F2225F
:10078600EF8DF0A4A8F0CF8CF0A428CE8DF0A42E87
:02079600FE2241
:10079800BC000BBE0029EF8DF084FFADF022E4CC45
:1007A800F875F008EF2FFFEE33FEEC33FCEE9DEC0E
:1007B800984005FCEE9DFE0FD5F0E9E4CEFD22ED54
:1007C800F8F5F0EE8420D21CFEADF075F008EF2F9E
:1007D800FFED33FD4007985006D5F0F222C398FD8F
:0507E8000FD5F0EA222C
:1007ED00D083D082F8E4937012740193700DA3A39B
:1007FD0093F8740193F5828883E4737402936860AF
:06080D00EFA3A3A380DFAE
:100D0400020557E493A3F8E493A34003F68001F2A9
:100D140008DFF48029E493A3F85407240CC8C333F0
:100D2400C4540F4420C8834004F456800146F6DFBF
:100D3400E4800B0102040810204080900C3BE47E08
:100D4400019360BCA3FF543F30E509541FFEE493B4
:100D5400A360010ECF54C025E060A840B8E493A37B
:100D6400FAE493A3F8E493A3C8C582C8CAC583CAA6
:100D7400F0A3C8C582C8CAC583CADFE9DEE780BE5E
:010CF70000FC
:00000001FF
