:0D116D007F017E0012117AD2957F017E0075
:10117A00D3EF9400EE94004007EF1F70F31E80F047
:01118A002242
:1011FD00D294121174C294121176C2957F017E00A1
:03120D0002117A51
:10124400C294C29512116DD2947F017E0002117A6C
:10118B00C295EFB4FF04D2948002C29412116DC2C7
:08119B00957F017E0002117A2C
:1011E9007DFFD29412116D209402E4FDC295121173
:0311F90076AF05C9
:0111FC0022D0
:0210FB00AD073F
:1010FD00E4FBFAE4FCED5480B480027CFFAF0412F3
:10110D00118B121176ED25E0FD0BBB00010AEB648E
:07111D00084A70DF1211E91E
:0111240022A8
:0210A100A9079D
:1010A300E4FCFBFAEC25E0FC1211E9AD0712117622
:1010B300EDB4FF04EC4401FC0BBB00010AEB640834
:0A10C3004A70E1AF0112118BAF0477
:0110CD002200
:08100900900208EEF0A3EFF0E5
:10101100E4FD1211FD7FA01210FB900208E0FDFF1C
:101021001210FBA3E0FDFF1210FB1211FD7FA112B4
:0E10310010FB7F011210A1AD07121244AF0593
:01103F00228E
:0A10400090020AECF0A3EDF0A907FE
:10104A00E4FF1211FD7FA01210FB90020AE0FF12CA
:10105A0010FBA3E0FF1210FBAF011210FB121244A7
:07106A007FA07E0F02117A46
:100026005001DE3132334134353642373839432ACE
:0300360030234430
:100ED4009001C87420F0E4FF20922E1211FD7F29A6
:100EE4001210FBEF600280217FFF1210A19001C855
:100EF400EFF01212449001C8E0540F24DEF582E4AE
:0F0F04003401F583E09001C8F07B017A0179C8D0
:010F130022BB
:1008F1001206821207B2099F2309852A096130096C
:10090100163109243209333309423409513509C6F4
:1009110042000009FF9001CBE0FBA3E0FAA3E0F95C
:10092100E4803A9001CBE0FBA3E0FAA3E0F9740183
:10093100802B9001CBE0FBA3E0FAA3E0F9740280E5
:100941001C9001CBE0FBA3E0FAA3E0F97403800D56
:100951009001CBE0FBA3E0FAA3E0F9740402071DC8
:100961009001CBE0FBA3E0FAA3E0F99000011206AD
:100971009B2404FFE433FE7C007D14120751900098
:1009810001ED80779001CEE0F9A3E0FAA3E09001B8
:10099100D4C9F0A3EAF0A3E9F0A374FF8018900191
:1009A100CEE0F9A3E0FAA3E09001D4C9F0A3EAF004
:1009B100A3E9F0A37401F09001CBE0FBA3E0FAA35B
:1009C100E0F90202459001CEE0FBA3E0FAA3E0F9D1
:1009D100741012071D9001CEE0FBA3E0FAA3E0F929
:1009E100900001744C12072F900002E412072F901F
:0F09F100000374A012072F900004E412072F22B6
:100245009001D1EBF0A3EAF0A3E9F09001D1E0FB36
:10025500A3E0FAA3E0F912068214605014700302B9
:1002650002F714700302033D147003020382240491
:1002750060030203C890000112069BFF9001D7E0BE
:10028500FEEF8EF0A4FF9001D4E0FBA3E0FAA3E01B
:10029500F9EF1206C89001DB7401F0A37401F0A315
:1002A50074D7F09001D4A3A3E00203C59001D1E077
:1002B500FBA3E0FAA3E0F990000112069BFF900171
:1002C500D7E0FEEF8EF0A4FF9001D4E0FBA3E0FAA7
:1002D500A3E0F9900001EF1206EAE92401F9E43AF6
:1002E500FA9001DB7401F0A37401F0A374D7F00256
:1002F50003C59001D1E0FBA3E0FAA3E0F99000016A
:1003050012069BFF9001D7E0FEEF8EF0A4FF90014F
:10031500D4E0FBA3E0FAA3E0F9900002EF1206EAAD
:10032500E92402F9E43AFA9001DB7401F0A37401BF
:10033500F0A374D7F00203C59001D1E0FBA3E0FA66
:10034500A3E0F990000112069BFF9001D7E0FEEFB4
:100355008EF0A4FF9001D4E0FBA3E0FAA3E0F990AE
:100365000003EF1206EAE92403F9E43AFA9001DB07
:100375007401F0A37401F0A374D7F080439001D108
:10038500E0FBA3E0FAA3E0F990000112069BFF90C1
:1003950001D7E0FEEF8EF0A4FF9001D4E0FBA3E0CF
:1003A500FAA3E0F9900004EF1206EAE92404F9E45F
:1003B5003AFA9001DB7401F0A37401F0A374D7F04D
:0403C500120D79227A
:100D79009001D8EBF0A3EAF0A3E9F0A3E0FBA3E02C
:100D8900FAA3E0F9120682FFB401179001D8E0FB3B
:100D9900A3E0FAA3E0F9120682D394CD400474CDFE
:100DA9008018EFB4FF179001D8E0FBA3E0FAA3E0A5
:0E0DB900F9120682D394CD4004E412071D22E5
:0F0039004202068000420204800142020280025D
:100DC700E4FFFE0FBF00010EBE2EF8BFE0F51211C3
:100DD700BB900206E0FEA3E0F5828E837438F01222
:100DE70011BB900206E0FEA3E0F5828E83740CF03F
:100DF7001212101211BB900206E0FEA3E0F5828EDC
:040E0700837406F0FA
:010E0B0022C4
:100F14009001D1EFF0A3EDF0A3EBF01211BB90011F
:100F2400D2E0FF1200039001D3E02FFF900206E00D
:100F3400FCA3E0F5828C83EFF01211BB9001D1E0A9
:0F0F4400FF900202E0FCA3E0F5828C83EFF02225
:0E0E92009001CCEBF0A3EAF0A3E9F0A3EDF0A1
:100EA000E4A3F0F09001CCE0FBA3E0FAA3E0F9901A
:100EB00001D0E0FEF58275830012069BFF9001CF02
:100EC000E0FDAB06120F149001D0E004F0E0C394F3
:030ED0001440D1FA
:010ED30022FC
:0B0F91009001C8EBF0A3EAF0A3E9F028
:100F9C00E4A3F09001CBE0FFC394045024EF75F070
:100FAC0015A4FF9001C8E0FBA3E0FAA3E02FF9EA37
:100FBC0035F0FAA3E0FD120E929001CBE004F08024
:010FCC00D252
:010FCD002201
:101210001211BB900206E0FEA3E0F5828E837401FA
:02122000F022BA
:1011BB00900204E0FEA3E0F5828E83E020E7F1E4E9
:0611CB00FF0FEFB40AFB68
:0111D10022FB
:10000300EF14600E14600F1460102403700E7E80D2
:0E001300800A7EC080067E9480027ED4AF06F6
:0100210022BC
:0812630066664C006E4C200091
:1000480045000A6666666600430013000000450026
:1000580003FFFFFFFFFF41000F03420001000542BD
:1000680000080000430010FF1263410000006054C4
:100078000174313A363620323A363620333A36363B
:1000880020343A36362000353A363620583A464635
:1000980020593A464620503A46462000423A4646BB
:1000A80020506F69643A417563756E2020202020C6
:1000B800003035207365713A3020737465703A30BA
:1000C800204F66664C00615E00160C4C1C51000CFB
:1000D800731C51000C782351000C782351FF0C78C5
:1000E8002351FF0C782351FF0C782351FF0C782300
:1000F80051FF0C782351FF0C782351FF114C054D0B
:1001080000115E004D0011690C4D0011690C4DFF86
:1001180011690C4DFF11690C4DFF11690C4DFF1150
:10012800690C4DFF11690C4DFF11690C4DFF154C01
:10013800135100156B13510015751E510015751ECE
:1001480051FF15751E51FF15751E51FF15751E516E
:10015800FF15751E51FF15751E51FF15751E51FFB0
:100168000B644A66FF0B813966FF0B813966000B09
:10017800813966000B813966000B813966000B8175
:100188003966000B813966000B813966000B8139AD
:1001980066000B813966FF2060375CFF2082375C80
:1001A800FF2082375C00204C37A000104C00A000D4
:1001B800104C00A000104C00A000104C00A0001033
:1001C8004C00A0000B813966FF1C60315CFF1C7E6F
:1001D800315CFF1C7E315C001C4C31A000104C00CF
:1001E800A000104C00A000104C00A000104C00A073
:1001F80000104C00A0000B813966FF18602D5CFFD1
:10020800187C2D5CFF187C2D5C00184C2DA000106C
:100218004C00A000104C00A000104C00A000104C96
:0802280000A000104C00A00032
:1003C900121222120DC71212547B017A017974128A
:1003D9000F9112127D900000E0700302049C9000BE
:1003E90008E0FF75F032A42416F582E5F03400F533
:1003F90083C083C082900009E0FED082D08375F06B
:10040900051207A6E090000AF075F032EFA4241750
:10041900F582E5F03400F58375F005EE1207A6E0E4
:1004290090000BF0900008E075F032A42418F582D2
:10043900E5F03400F583C083C082900009E0D082E2
:10044900D08375F0051207A6E090000CF075F03224
:10045900EFA42419F582E5F03400F58375F005EE73
:100469001207A6E090000DF0900008E075F032A4A4
:10047900241AF582E5F03400F583C083C082900028
:1004890009E0D082D08375F0051207A6E090000E2E
:10049900F08020120ED49001CB7401F0A37400F007
:1004A900A37401F0A37401F0A37400F0A3740AF01B
:1004B9001208F1308D097B017A0079131211D2905B
:1004C9000013E0D394054010E4F090001074FFF09D
:1004D900A37412F0A37463F0900014E0D394034062
:1004E90005E4F0120FCE900015E0D394274002E402
:1004F900F0121271EF601FE4900013F09000107475
:10050900FFF0A37412F0A37467F01212777B017ADB
:1005190000790A120BEA7B017A00790312052B0292
:0205290003DEEF
:100FCE007B017A00790A1207D87B017A0079031225
:100FDE000A007B017A00790F120B6D7B017A007982
:100FEE0001120E4F7B017A007908120F53900010F8
:0B0FFE00E0FBA3E0FAA3E0F9020D26DF
:0B0E0C009001FBEBF0A3EAF0A3E9F07B
:100E1700A3E0FBA3E0FAA3E0F912068275F010A4A1
:100E2700FF9001FBE0FBA3E0FAA3E0F91206827C46
:100E3700002FFDEC35F0FC900201E07F00FEEF2D66
:070E4700FFEC3EFE12100952
:010E4E002281
:10122200759850438920758DFD438780D28ED2995F
:011232002299
:1007D8009001C8EBF0A3EAF0A3E9F09001C8E0FBB0
:1007E800A3E0FAA3E0F9E4FD1210717B02E4FD1224
:1007F8000F149001C8E0FBA3E0FAA3E0F97D011211
:1008080010717B03E4FD120F149001C8E0FBA3E014
:10081800FAA3E02401F9E43AFAE4FD1210717B0727
:10082800E4FD120F149001C8E0FBA3E0FAA3E02452
:1008380001F9E43AFA7D011210717B08E4FD120F08
:10084800149001C8E0FBA3E0FAA3E02402F9E43A1B
:10085800FAE4FD1210717B0CE4FD120F149001C82C
:10086800E0FBA3E0FAA3E02402F9E43AFA7D0112DE
:1008780010717B0DE4FD120F149001C8E0FBA3E09A
:10088800FAA3E02403F9E43AFAE4FD1210717B11AB
:10089800E4FD120F149001C8E0FBA3E0FAA3E024E2
:1008A80003F9E43AFA7D011210717B12E4FD120F8C
:1008B800149001C8E0FBA3E0FAA3E02404F9E43AA9
:1008C800FAE4FD1210717B027D01120F149001C829
:1008D800E0FBA3E0FAA3E02404F9E43AFA7D01126C
:0908E80010717B037D01020F1465
:100A00009001C8EBF0A3EAF0A3E9F09001C8E0FB85
:100A1000A3E0FAA3E0F9E4FD1210717B077D011257
:100A20000F149001C8E0FBA3E0FAA3E0F97D0112E6
:100A300010717B087D01120F149001C8E0FBA3E048
:100A4000FAA3E02401F9E43AFAE4FD1210717B0CF8
:100A50007D01120F149001C8E0FBA3E0FAA3E0248B
:100A600001F9E43AFA7D011210717B0D7D01120F3C
:100A7000149001C8E0FBA3E0FAA3E02402F9E43AF1
:100A8000FAE4FD1210717B117D01120F149001C860
:100A9000E0FBA3E0FAA3E02402F9E43AFA7D0112B4
:100AA00010717B127D01120F149001C8E0FBA3E0CE
:100AB000FAA3E02403F9E43AFAE4FD1210717B0290
:100AC0007D02120F149001C8E0FBA3E0FAA3E0241A
:100AD00003F9E43AFA7D011210717B037D02020FE3
:010AE0001401
:100B6D00120CC69001C8EBF0A3EAF0A3E9F012064F
:100B7D0082FF7B0A7D02120F149001C8E0FBA3E0F7
:100B8D00FAA3E0F990000112069BFF7B0B7D021288
:100B9D000F149001C8E0FBA3E0FAA3E0F990000266
:100BAD0012069BFF7B0C7D02120F149001C8E0FB17
:100BBD00A3E0FAA3E0F990000312069BFF7B0D7DE5
:100BCD0002120F149001C8E0FBA3E0FAA3E0F99024
:0D0BDD00000412069BFF7B0E7D02020F1428
:100E4F009001C8EBF0A3EAF0A3E9F09001C8E0FB32
:100E5F00A3E0FAA3E02401F9E43AFA7D011210CEDF
:100E6F00E4FB7D03120F149001C8E0FBA3E0FAA38B
:100E7F00E02401F9E43AFA7D021210CE7B017D03E2
:030E8F00020F143B
:100F53009001C8EBF0A3EAF0A3E9F09001C8E0FB2D
:100F6300A3E0FAA3E0F91206822430FF7B077D0396
:100F7300120F149001C8E0FBA3E0FAA3E0F990007C
:0E0F83000112069B2430FF7B0E7D03020F142B
:100D26009001C8EBF0A3EAF0A3E9F09001C8E0FB5C
:100D3600A3E0FAA3E0F9120682FF7B117D03120FEE
:100D4600149001C8E0FBA3E0FAA3E0F990000112B9
:100D5600069BFF7B127D03120F149001C8E0FBA3D4
:100D6600E0FAA3E0F990000212069BFF7B137D03D5
:030D7600020F1455
:0F1254005389F0438901E4F58A758C4CD28C22C2
:1011D200C28D74011206C890000174011206EA90D1
:0711E200000274010206EA9D
:1011A300426C65752000566572742000526F756736
:0811B3006500417563756E00D3
:10107100ED7007120682FFC48007EDB4010B120662
:1010810082540F9001CBF080069001CB7420F07B4D
:0F109100017A0179CB12114C9001CBEFF0E0FF07
:0110A000222D
:1010CE00ED700812068275F064800AEDB401091203
:1010DE00068275F00A84800DEDB4020E120682753A
:0C10EE00F00A84E5F02430FF80027F202F
:0110FA0022D3
:0B0CC6009001CBEBF0A3EAF0A3E9F0F3
:100CD100120682FF70109001CE74FFF0A37411F020
:100CE100A374A3F08033EFB401109001CE74FFF030
:100CF100A37411F0A374A9F0801FEF9001CEB40288
:100D01000D74FFF0A37411F0A374AFF0800B74FFA6
:100D1100F0A37411F0A374B5F09001CEE0FBA3E051
:040D2100FAA3E0F958
:010D250022AB
:10114C00120682FED394095006EE2430FF80111251
:10115C000682FED3940F5006EE2437FF80027F20C8
:01116C002260
:100230004101F1004101EE004101EF004101F200F6
:040240004101F00088
:05127D00D2ACD2AF224B
:03002300020C6468
:100C6400C0E0C0F0C083C082C0D075D000C000C056
:100C740001C002C003C004C005C006C007309822EA
:100C84001212829001F2EFF09001F1E0FE24F3F5EC
:100C940082E43401F583EFF0EE0454079001F1F09F
:100CA400C298309902C299D007D006D005D004D09A
:100CB40003D002D001D000D0D0D082D083D0F0D0E5
:020CC400E0321C
:02128200AF9922
:011284002247
:10052B00E4FF9001EEE0FE9001F1E06E7003020635
:10053B00819001EFE0B40800400302068190054F63
:10054B00F82828730205670205950205C70205E521
:10055B0002060702062902064B02065A9001EEE03C
:10056B00FD24F3F582E43401F583E0FF74F32DF5FC
:10057B0082E43401F583E4F0EE0454079001EEF0CD
:10058B00EF64476003020681804B9001EEE0FE248E
:10059B00F3F582E43401F583E0FF74F32EF582E486
:1005AB003401F583E4F09001EEE0045407F0EFB46E
:1005BB004F0280219001EFE0140206569001EEE00D
:1005CB0024F3F582E43401F583E012071D9001EE6C
:1005DB00E0045407F0A3E00480719001EEE0FF24E7
:1005EB00F3F582E43401F583E090000112072FEF5D
:1005FB000454079001EEF0A3E004804F9001EEE06D
:10060B00FF24F3F582E43401F583E0900002120736
:10061B002FEF0454079001EEF0A3E004802D90011E
:10062B00EEE0FF24F3F582E43401F583E090000360
:10063B0012072FEF0454079001EEF0A3E004800B98
:10064B009001EEE0045407F0A3E0045407F022906D
:10065B0001EEE0FF24F3F582E43401F583E0900032
:10066B000412072FEF0454079001EEF0A3E004549B
:06067B0007F0A37401F07A
:010681002256
:100BEA009001C8EBF0A3EAF0A3E9F07F47121238AC
:100BFA007F4F1212389001C8E0FBA3E0FAA3E0F994
:100C0A00120682FF1212389001C8E0FBA3E0FAA391
:100C1A00E09000011212339001C8E0FBA3E0FAA3AE
:100C2A00E09000021212339001C8E0FBA3E0FAA39D
:100C3A00E0F99000031212349001C8E0FBA3E0FA35
:100C4A00A3E0F99000041212349001C8E0FBA3E07B
:0A0C5A00FAA3E0F912112502123886
:1011250090000112069BFF12068224962FFF900065
:101135000212069B2FFF90000312069B2FFF9000C3
:061145000412069B2FFFBF
:01114B002281
:05123300F912069BFF0B
:0C123800C2AC8F993099FDC299D2AC2253
:06126B00A298E433FF220B
:061271009001F0E0FF22F5
:06127700E49001F0F022FA
:03000000020AE110
:0C0AE100787FE4F6D8FD758107020B2831
:10068200BB010689828A83E0225002E722BBFE0276
:09069200E32289828A83E49322A9
:10069B00BB010CE58229F582E5833AF583E0225014
:1006AB0006E92582F8E622BBFE06E92582F8E2225E
:0D06BB00E58229F582E5833AF583E4932278
:1006C800BB010989828A83F8E028F022500327F7C2
:1006D80022BBFE05F8E328F3228A838982F8E49393
:0206E8002822C6
:1006EA00BB010FF8E58229F582E5833AF583E02814
:1006FA00F0225009C58229F8E58226F622BBFE09B6
:10070A00C58229F8E22582F222F8EA2583F583E9EF
:03071A00932822FF
:10071D00BB010689828A83F0225002F722BBFE01BB
:02072D00F322B5
:10072F00F8BB010DE58229F582E5833AF583E8F000
:10073F00225006E92582C8F622BBFE05E92582C8AC
:02074F00F22294
:10075100BC000BBE0029EF8DF084FFADF022E4CC8C
:10076100F875F008EF2FFFEE33FEEC33FCEE9DEC55
:10077100984005FCEE9DFE0FD5F0E9E4CEFD22ED9B
:10078100F8F5F0EE8420D21CFEADF075F008EF2FE5
:10079100FFED33FD4007985006D5F0F222C398FDD6
:0507A1000FD5F0EA2273
:0C07A600A42582F582E5F03583F583225E
:1007B200D083D082F8E4937012740193700DA3A3D6
:1007C20093F8740193F5828883E4737402936860EA
:0607D200EFA3A3A380DFEA
:100AED000203C9E493A3F8E493A34003F68001F253
:100AFD0008DFF48029E493A3F85407240CC8C3330A
:100B0D00C4540F4420C8834004F456800146F6DFD8
:100B1D00E4800B0102040810204080900026E47E42
:100B2D00019360BCA3FF543F30E509541FFEE493CD
:100B3D00A360010ECF54C025E060A840B8E493A394
:100B4D00FAE493A3F8E493A3C8C582C8CAC583CABF
:100B5D00F0A3C8C582C8CAC583CADFE9DEE780BE77
:0102440000B9
:00000001FF
