:0D0F67007F017E00120F74D2957F017E0085
:100F7400D3EF9400EE94004007EF1F70F31E80F04F
:010F8400224A
:100FF700D294120F6EC294120F70C2957F017E00B9
:03100700020F7461
:10103E00C294C295120F67D2947F017E00020F7484
:100F8500C295EFB4FF04D2948002C294120F67C2D7
:080F9500957F017E00020F743C
:100FE3007DFFD294120F67209402E4FDC295120F85
:030FF30070AF05D7
:010FF60022D8
:020EF700AD0745
:100EF900E4FBFAE4FCED5480B480027CFFAF0412F9
:100F09000F85120F70ED25E0FD0BBB00010AEB64A4
:070F1900084A70DF120FE32C
:010F200022AE
:020E9D00A907A3
:100E9F00E4FCFBFAEC25E0FC120FE3AD07120F7038
:100EAF00EDB4FF04EC4401FC0BBB00010AEB64083A
:0A0EBF004A70E1AF01120F85AF0485
:010EC9002206
:100026005001DF3132334134353642373839432ACD
:0300360030234430
:100D3D009001C97420F0E4FF20922E120FF77F2945
:100D4D00120EF7EF600280217FFF120E9D9001C9F8
:100D5D00EFF012103E9001C9E0540F24DFF582E44C
:0F0D6D003401F583E09001C9F07B017A0179C967
:010D7C002254
:1008360012051824DD70030208E924F97003020882
:10084600CF24FA605F24FE601E14602A14603614FA
:100856006042240460030209109001CCE0FBA3E08F
:10086600FAA3E0F9E4803A9001CCE0FBA3E0FAA316
:10087600E0F97401802B9001CCE0FBA3E0FAA3E041
:10088600F97402801C9001CCE0FBA3E0FAA3E0F926
:100896007403800D9001CCE0FBA3E0FAA3E0F974A9
:1008A600040205B39001CCE0FBA3E0FAA3E0F990C3
:1008B60000011205312404FFE433FE7C007D14128E
:1008C60005E7900001ED0205C59001CFE0F9A3E030
:1008D600FAA3E09001D5C9F0A3EAF0A3E9F0A37466
:1008E600FF80189001CFE0F9A3E0FAA3E09001D5CC
:1008F600C9F0A3EAF0A3E9F0A37401F09001CCE0FB
:0B090600FBA3E0FAA3E0F9120242227A
:100242009001D2EBF0A3EAF0A3E9F09001D2E0FB37
:10025200A3E0FAA3E0F91205181460501470030227
:1002620002F414700302033A14700302037F24049D
:1002720060030203C5900001120531FF9001D8E02E
:10028200FEEF8EF0A4FF9001D5E0FBA3E0FAA3E01D
:10029200F9EF12055E9001DC7401F0A37401F0A382
:1002A20074D8F09001D5A3A3E00203C29001D2E07A
:1002B200FBA3E0FAA3E0F9900001120531FF9001DF
:1002C200D8E0FEEF8EF0A4FF9001D5E0FBA3E0FAA8
:1002D200A3E0F9900001EF120580E92401F9E43A64
:1002E200FA9001DC7401F0A37401F0A374D8F00257
:1002F20003C29001D2E0FBA3E0FAA3E0F99000016F
:10030200120531FF9001D8E0FEEF8EF0A4FF9001BC
:10031200D5E0FBA3E0FAA3E0F9900002EF1205801A
:10032200E92402F9E43AFA9001DC7401F0A37401C1
:10033200F0A374D8F00203C29001D2E0FBA3E0FA6A
:10034200A3E0F9900001120531FF9001D8E0FEEF21
:100352008EF0A4FF9001D5E0FBA3E0FAA3E0F990B0
:100362000003EF120580E92403F9E43AFA9001DC74
:100372007401F0A37401F0A374D8F080439001D209
:10038200E0FBA3E0FAA3E0F9900001120531FF902F
:1003920001D8E0FEEF8EF0A4FF9001D5E0FBA3E0D0
:1003A200FAA3E0F9900004EF120580E92404F9E4CD
:1003B2003AFA9001DC7401F0A37401F0A374D8F04E
:0403C200120C2522D2
:100C25009001D9EBF0A3EAF0A3E9F0A3E0FBA3E080
:100C3500FAA3E0F9120518FFB401179001D9E0FBFA
:100C4500A3E0FAA3E0F9120518D394CD400474CDBE
:100C55008018EFB4FF179001D9E0FBA3E0FAA3E0F9
:0E0C6500F9120518D394CD4004E41205B32211
:0F0039004201FF80004201FD80014201FB800275
:100C7300E4FFFE0FBF00010EBE2EF8BFE0F5120F1A
:100C8300B59001FFE0FEA3E0F5828E837438F01285
:100C93000FB59001FFE0FEA3E0F5828E83740CF0A4
:100CA30012100A120FB59001FFE0FEA3E0F5828E49
:040CB300837406F050
:010CB700221A
:100D7D009001D2EFF0A3EDF0A3EBF0120FB59001BF
:100D8D00D3E0FF1200039001D4E02FFF9001FFE0AC
:100D9D00FCA3E0F5828C83EFF0120FB59001D2E049
:0F0DAD00FF9001FBE0FCA3E0F5828C83EFF022C6
:0E0CFB009001CDEBF0A3EAF0A3E9F0A3EDF039
:100D0900E4A3F0F09001CDE0FBA3E0FAA3E0F990B1
:100D190001D1E0FEF582758300120531FF9001D003
:100D2900E0FDAB06120D7D9001D1E004F0E0C39423
:030D39001440D192
:010D3C002294
:0B0DFA009001C9EBF0A3EAF0A3E9F0C0
:100E0500E4A3F09001CCE0FFC394045024EF75F007
:100E150015A4FF9001C9E0FBA3E0FAA3E02FF9EACE
:100E250035F0FAA3E0FD120CFB9001CCE004F08054
:010E3500D2EA
:010E36002299
:10100A00120FB59001FFE0FEA3E0F5828E83740112
:02101A00F022C2
:100FB5009001FDE0FEA3E0F5828E83E020E7F1E4F9
:060FC500FF0FEFB40AFB70
:010FCB002203
:10000300EF14600E14600F1460102403700E7E80D2
:0E001300800A7EC080067E9480027ED4AF06F6
:0100210022BC
:1000480045000A6666666600430014000000450025
:1000580003FFFFFFFFFF41000F03420001000542BD
:100068000008000044001066664C00410000006073
:10007800540175313A363620323A363620333A361C
:100088003620343A36362000353A363620583A4645
:100098004620593A464620503A46462000423A46BB
:1000A8004620504F49443A2D2D2020202020202042
:1000B80020003035207365713A3020737465703ACA
:1000C80030204F66664C00615E0017FFFFFFFFFFA0
:1000D800FFFFFFFFFFFFFFFFFFFFFFFFFFFFFFFF28
:1000E800FFFFFFFFFFFFFFFFFFFFFFFFFFFFFFFF18
:1000F800FFFFFFFFFFFFFFFFFFFFFFFFFFFFFFFF08
:10010800FFFFFFFFFFFFFFFFFFFFFFFFFFFFFFFFF7
:10011800FFFFFFFFFFFFFFFFFFFFFFFFFFFFFFFFE7
:10012800FFFFFFFFFFFFFFFFFFFFFFFFFFFFFFFFD7
:10013800FFFFFFFFFFFFFFFFFFFFFFFFFFFFFFFFC7
:10014800FFFFFFFFFFFFFFFFFFFFFFFFFFFFFFFFB7
:10015800FFFFFFFFFFFFFFFFFFFFFFFFFFFFFFFFA7
:10016800FFFFFFFFFFFFFFFFFFFFFFFFFFFFFFFF97
:10017800FFFFFFFFFFFFFFFFFFFFFFFFFFFFFFFF87
:10018800FFFFFFFFFFFFFFFFFFFFFFFFFFFFFFFF77
:10019800FFFFFFFFFFFFFFFFFFFFFFFFFFFFFFFF67
:1001A800FFFFFFFFFFFFFFFFFFFFFFFFFFFFFFFF57
:1001B800FFFFFFFFFFFFFFFFFFFFFFFFFFFFFFFF47
:1001C800FFFFFFFFFFFFFFFFFFFFFFFFFFFFFFFF37
:1001D800FFFFFFFFFFFFFFFFFFFFFFFFFFFFFFFF27
:1001E800FFFFFFFFFFFFFFFFFFFFFFFFFFFFFFFF17
:1001F800FFFFFFFFFFFFFFFFFFFFFFFFFFFFFFFF07
:10020800FFFFFFFFFFFFFFFFFFFFFFFFFFFFFFFFF6
:10021800FFFFFFFFFFFFFFFFFFFFFFFFFFFFFFFFE6
:09022800FFFFFFFFFFFFFFFFFFD6
:10099D0012101C120C7312104E7B017A0179751214
:1009AD000DFA121063900000E07020120D3D9001C1
:1009BD00CC7401F0A37400F0A37401F0A37401F0E2
:1009CD00A37400F0A3740AF0120836308D097B0170
:1009DD007A007914120FCC900014E0D394054002E4
:1009ED00E4F0900015E0D39403401CE4F0120E37B0
:1009FD009001CC7401F0A37400F0A3740AF07B0194
:100A0D007A007903120A9E900016E0D39427409540
:040A1D00E4F08091F0
:100E37007B017A00790A12063C7B017A007903125A
:100E470007557B017A00790F120A217B017A007915
:100E570001120CB87B017A007908120DBC7B017A6C
:060E6700007910020BD21D
:10101C00759850438920758DFD438780D28ED29967
:01102C0022A1
:10063C009001C9EBF0A3EAF0A3E9F09001C9E0FB4B
:10064C00A3E0FAA3E0F9E4FD120E6D7B02E4FD12C7
:10065C000D7D9001C9E0FBA3E0FAA3E0F97D011246
:10066C000E6D7B03E4FD120D7D9001C9E0FBA3E050
:10067C00FAA3E02401F9E43AFAE4FD120E6D7B07CB
:10068C00E4FD120D7D9001C9E0FBA3E0FAA3E02488
:10069C0001F9E43AFA7D01120E6D7B08E4FD120DAE
:1006AC007D9001C9E0FBA3E0FAA3E02402F9E43A4F
:1006BC00FAE4FD120E6D7B0CE4FD120D7D9001C968
:1006CC00E0FBA3E0FAA3E02402F9E43AFA7D01127C
:1006DC000E6D7B0DE4FD120D7D9001C9E0FBA3E0D6
:1006EC00FAA3E02403F9E43AFAE4FD120E6D7B114F
:1006FC00E4FD120D7D9001C9E0FBA3E0FAA3E02418
:10070C0003F9E43AFA7D01120E6D7B12E4FD120D31
:10071C007D9001C9E0FBA3E0FAA3E02404F9E43ADC
:10072C00FAE4FD120E6D7B027D01120D7D9001C964
:10073C00E0FBA3E0FAA3E02404F9E43AFA7D011209
:09074C000E6D7B037D01020D7DA1
:100755009001C9EBF0A3EAF0A3E9F09001C9E0FB31
:10076500A3E0FAA3E0F9E4FD120E6D7B077D01120B
:100775000D7D9001C9E0FBA3E0FAA3E0F97D01122C
:100785000E6D7B087D01120D7D9001C9E0FBA3E094
:10079500FAA3E02401F9E43AFAE4FD120E6D7B0CAC
:1007A5007D01120D7D9001C9E0FBA3E0FAA3E024D1
:1007B50001F9E43AFA7D01120E6D7B0D7D01120DF2
:1007C5007D9001C9E0FBA3E0FAA3E02402F9E43A35
:1007D500FAE4FD120E6D7B117D01120D7D9001C9AC
:1007E500E0FBA3E0FAA3E02402F9E43AFA7D011262
:1007F5000E6D7B127D01120D7D9001C9E0FBA3E01A
:10080500FAA3E02403F9E43AFAE4FD120E6D7B0243
:100815007D02120D7D9001C9E0FBA3E0FAA3E0245F
:1008250003F9E43AFA7D01120E6D7B037D02020D98
:010835007D45
:100A2100120B729001C9EBF0A3EAF0A3E9F01205F1
:100A310018FF7B0A7D02120D7D9001C9E0FBA3E046
:100A4100FAA3E0F9900001120531FF7B0B7D021240
:100A51000D7D9001C9E0FBA3E0FAA3E0F99000024B
:100A6100120531FF7B0C7D02120D7D9001C9E0FB67
:100A7100A3E0FAA3E0F9900003120531FF7B0D7D9D
:100A810002120D7D9001C9E0FBA3E0FAA3E0F99009
:0D0A91000004120531FF7B0E7D02020D7D79
:100CB8009001C9EBF0A3EAF0A3E9F09001C9E0FBC9
:100CC800A3E0FAA3E02401F9E43AFA7D01120ECA7E
:100CD800E4FB7D03120D7D9001C9E0FBA3E0FAA3BC
:100CE800E02401F9E43AFA7D02120ECA7B017D0381
:030CF800020D7D6D
:100DBC009001C9EBF0A3EAF0A3E9F09001C9E0FBC4
:100DCC00A3E0FAA3E0F91205182430FF7B077D039A
:100DDC00120D7D9001C9E0FBA3E0FAA3E0F99000AD
:0E0DEC00011205312430FF7B0E7D03020D7DC8
:100BD2009001C9EBF0A3EAF0A3E9F09001C9E0FBB0
:100BE200A3E0FAA3E0F9120518FF7B117D03120DB1
:100BF2007D9001C9E0FBA3E0FAA3E0F990000112A5
:100C02000531FF7B127D03120D7D9001C9E0FBA32C
:100C1200E0FAA3E0F9900002120531FF7B137D0395
:030C2200020D7D43
:0F104E005389F0438901E4F58A758C4CD28C22CA
:100FCC00C28D740112055E900001740112058090AF
:070FDC000002740102058010
:100F9D00426C65752000566572742000526F75673E
:080FAD006500417563756E00DB
:100E6D00ED7007120518FFC48007EDB4010B1205D4
:100E7D0018540F9001CCF080069001CC7420F07BBB
:0F0E8D00017A0179CC120F469001CCEFF0E0FF13
:010E9C002233
:100ECA00ED700812051875F064800AEDB401091274
:100EDA00051875F00A84800DEDB4020E1205187516
:0C0EEA00F00A84E5F02430FF80027F2035
:010EF60022D9
:0B0B72009001CCEBF0A3EAF0A3E9F047
:100B7D00120518FF70109001CF74FFF0A3740FF0E1
:100B8D00A3749DF08033EFB401109001CF74FFF08A
:100B9D00A3740FF0A374A3F0801FEF9001CFB402E4
:100BAD000D74FFF0A3740FF0A374A9F0800B74FF04
:100BBD00F0A3740FF0A374AFF09001CFE0FBA3E0AE
:040BCD00FAA3E0F9AE
:010BD1002201
:100F4600120518FED394095006EE2430FF801112C4
:100F56000518FED3940F5006EE2437FF80027F203B
:010F66002268
:100231004101F1004101EF004101F0004101F200F3
:05106300D2ACD2AF2267
:03002300020B10BD
:100B1000C0E0C0F0C083C082C0D075D000C000C0AB
:100B200001C002C003C004C005C006C0073098223F
:100B30001210689001F2EFF09001F1E0FE24F3F55D
:100B400082E43401F583EFF0EE0454079001F1F0F4
:100B5000C298309902C299D007D006D005D004D0EF
:100B600003D002D001D000D0D0D082D083D0F0D03A
:020B7000E03271
:02106800AF993E
:01106A002263
:1003C600E4FF9001EFE0FE9001F1E06E700302059C
:1003D600179001F0E0B4080040030205179003EA05
:1003E600F82828730204020204300204620204811F
:1003F6000204A30204C50204E70204F49001EFE03C
:10040600FD24F3F582E43401F583E0FF74F32DF562
:1004160082E43401F583E4F0EE0454079001EFF032
:10042600EF64476003020517804B9001EFE0FE245E
:10043600F3F582E43401F583E0FF74F32EF582E4EC
:100446003401F583E4F09001EFE0045407F0EFB4D3
:100456004F0280219001F0E0140205149001EFE0B4
:1004660024F3F582E43401F583E01205B39001EF3D
:10047600E0045407F0A3E0040205149001EFE0FF46
:1004860024F3F582E43401F583E09000011205C5FA
:10049600EF0454079001EFF0A3E00480719001EFA0
:1004A600E0FF24F3F582E43401F583E090000212C4
:1004B60005C5EF0454079001EFF0A3E004804F90C8
:1004C60001EFE0FF24F3F582E43401F583E09000C8
:1004D600031205C5EF0454079001EFF0A3E0048072
:1004E6002D9001EFE0045407F0A3E0048020900172
:1004F600EFE0FF24F3F582E43401F583E090000495
:100506001205C5EF0454079001EFF0A3E004540769
:01051600F0F4
:0105170022C1
:100A9E001203C67F471210327F4F1210329001CCD4
:100AAE00E0FBA3E0FAA3E0F9120518FF1210329052
:100ABE0001CCE0FBA3E0FAA3E090000112102D9010
:100ACE0001CCE0FBA3E0FAA3E090000212102D90FF
:100ADE0001CCE0FBA3E0FAA3E0F990000312102E84
:100AEE009001CCE0FBA3E0FAA3E0F9900004121011
:100AFE002E9001CCE0FBA3E0FAA3E0F9120F210245
:020B0E001032A3
:100F2100900001120531FF1205182FFF90000212E7
:100F310005312FFF9000031205312FFF900004129D
:040F410005312FFF48
:010F45002289
:05102D00F9120531FF7E
:0C103200C2AC8F993099FDC299D2AC225B
:06105D00A298E433FF221B
:03000000020911E1
:0C091100787FE4F6D8FD758107020958D4
:10051800BB010689828A83E0225002E722BBFE02E1
:09052800E32289828A83E4932214
:10053100BB010CE58229F582E5833AF583E022507F
:1005410006E92582F8E622BBFE06E92582F8E222C9
:0D055100E58229F582E5833AF583E49322E3
:10055E00BB010989828A83F8E028F022500327F72D
:10056E0022BBFE05F8E328F3228A838982F8E493FE
:02057E00282231
:10058000BB010FF8E58229F582E5833AF583E0287F
:10059000F0225009C58229F8E58226F622BBFE0921
:1005A000C58229F8E22582F222F8EA2583F583E95B
:0305B0009328226B
:1005B300BB010689828A83F0225002F722BBFE0127
:0205C300F32221
:1005C500F8BB010DE58229F582E5833AF583E8F06C
:1005D500225006E92582C8F622BBFE05E92582C818
:0205E500F22200
:1005E700BC000BBE0029EF8DF084FFADF022E4CCF8
:1005F700F875F008EF2FFFEE33FEEC33FCEE9DECC1
:10060700984005FCEE9DFE0FD5F0E9E4CEFD22ED06
:10061700F8F5F0EE8420D21CFEADF075F008EF2F50
:10062700FFED33FD4007985006D5F0F222C398FD41
:050637000FD5F0EA22DE
:10091D0002099DE493A3F8E493A34003F68001F24A
:10092D0008DFF48029E493A3F85407240CC8C333DB
:10093D00C4540F4420C8834004F456800146F6DFAA
:10094D00E4800B0102040810204080900026E47E14
:10095D00019360BCA3FF543F30E509541FFEE4939F
:10096D00A360010ECF54C025E060A840B8E493A366
:10097D00FAE493A3F8E493A3C8C582C8CAC583CA91
:10098D00F0A3C8C582C8CAC583CADFE9DEE780BE49
:0102410000BC
:00000001FF
