:100026004101EE004101EC004101ED004101EF000C
:050FD600D2ACD2AF22F5
:03002300020A844A
:100A8400C0E0C0F0C083C082C0D075D000C000C038
:100A940001C002C003C004C005C006C007309822CC
:100AA400120FDB9001EFEFF09001EEE0FE24F0F581
:100AB40082E43401F583EFF0EE0454079001EEF084
:100AC400C298309902C299D007D006D005D004D07C
:100AD40003D002D001D000D0D0D082D083D0F0D0C7
:020AE400E032FE
:020FDB00AF99CC
:010FDD0022F1
:0B023C009001FEEBF0A3EAF0A3E9F054
:10024700E4FB9001ECE0FE9001EEE06E7003020328
:10025700E69001EDE0FDB4080040030203E69002DA
:100267006CF82828730202840202B70202E902032B
:10027700150203450203740203A90203B69001ECB9
:10028700E0FC24F0F582E43401F583E0FB74F02C04
:10029700F582E43401F583E4F0EE0454079001ECB1
:1002A700F0EB644760030203E6ED045407A3F02272
:1002B7009001ECE0FF24F0F582E43401F583E0FBE4
:1002C70074F02FF582E43401F583E4F09001ECE05B
:1002D700045407F0EBB44F02802E9001EDE01402B6
:1002E70003E39001ECE024F0F582E43401F583E0C8
:1002F700FF9001FEE0FBA3E0FAA3E0F9EF12060688
:100307009001ECE0045407F0A3E0040203E390013A
:10031700ECE0FF24F0F582E43401F583E0FE900180
:10032700FEE0FBA3E0FAA3E0F9900001EE12061845
:10033700EF0454079001ECF0A3E0040203E39001FB
:10034700ECE0FF24F0F582E43401F583E0FE900150
:10035700FEE0FBA3E0FAA3E0F9900002EE12061814
:10036700EF0454079001ECF0A3E004806F9001ECD8
:10037700E0FF24F0F582E43401F583E0FE9001FE0E
:10038700E0FBA3E0FAA3E0F9900003EE120618EFF2
:100397000454079001ECF0A3E0045407F07F340203
:1003A7000FC19001ECE0045407F0A3E004802D9006
:1003B70001ECE0FF24F0F582E43401F583E0FE90E0
:1003C70001FEE0FBA3E0FAA3E0F9900004EE1206B9
:0F03D70018EF0454079001ECF0A3E0045407F072
:0103E60022F4
:0C0FC100C2AC8F993099FDC299D2AC22CD
:090FCD003098037F01227F00220D
:0D0EF3007F017E00120F00D2957F017E006E
:100F0000D3EF9400EE94004007EF1F70F31E80F0C3
:010F100022BE
:100F6C00D294120EFAC294120EFCC2957F017E002E
:030F7C00020F0061
:100FA200C294C295120EF3D2947F017E00020F000A
:100F1100C295EFB4FF04D2948002C294120EF3C2C0
:080F2100957F017E00020F0024
:100F58007DFFD294120EF3209402E4FDC295120E86
:030F6800FCAF05D6
:010F6B002263
:020EA800AD0794
:100EAA00E4FBFAE4FCED5480B480027CFFAF041248
:100EBA000F11120EFCED25E0FD0BBB00010AEB64DD
:070ECA00084A70DF120F5807
:010ED10022FE
:020E4E00A907F2
:100E5000E4FCFBFAEC25E0FC120F58AD07120EFC87
:100E6000EDB4FF04EC4401FC0BBB00010AEB640889
:0A0E70004A70E1AF01120F11AF0448
:010E7A002255
:100036005001DC3132334134353642373839432AC0
:0300460030234420
:100CB1009001C67420F0E4FF20922E120F6C7F2960
:100CC100120EA8EF600280217FFF120E4E9001C626
:100CD100EFF0120FA29001C6E0540F24DCF582E47C
:0F0CE1003401F583E09001C6F07B017A0179C6FA
:010CF00022E1
:1008890012056B24DD700302093C24F97003020987
:100899002224FA605F24FE601E14602A1460361454
:1008A9006042240460030209639001C9E0FBA3E0EC
:1008B900FAA3E0F9E4803A9001C9E0FBA3E0FAA3C6
:1008C900E0F97401802B9001C9E0FBA3E0FAA3E0F1
:1008D900F97402801C9001C9E0FBA3E0FAA3E0F9D6
:1008E9007403800D9001C9E0FBA3E0FAA3E0F97459
:1008F900040206069001C9E0FBA3E0FAA3E0F9901F
:1009090000011205842404FFE433FE7C007D1412E7
:10091900063A900001ED0206189001CCE0F9A3E037
:10092900FAA3E09001D2C9F0A3EAF0A3E9F0A37415
:10093900FF80189001CCE0F9A3E0FAA3E09001D27E
:10094900C9F0A3EAF0A3E9F0A37401F09001C9E0AA
:0B095900FBA3E0FAA3E0F91203E72281
:1003E7009001CFEBF0A3EAF0A3E9F09001CFE0FB97
:1003F700A3E0FAA3E0F912056B146050147003022E
:1004070004991470030204DF147003020524240402
:10041700600302056A900001120584FF9001D5E090
:10042700FEEF8EF0A4FF9001D2E0FBA3E0FAA3E079
:10043700F9EF1205B19001D97401F0A37401F0A38B
:1004470074D5F09001D2A3A3E00205679001CFE035
:10045700FBA3E0FAA3E0F9900001120584FF9001E5
:10046700D5E0FEEF8EF0A4FF9001D2E0FBA3E0FA07
:10047700A3E0F9900001EF1205D3E92401F9E43A6A
:10048700FA9001D97401F0A37401F0A374D5F002B6
:1004970005679001CFE0FBA3E0FAA3E0F990000124
:1004A700120584FF9001D5E0FEEF8EF0A4FF9001C6
:1004B700D2E0FBA3E0FAA3E0F9900002EF1205D324
:1004C700E92402F9E43AFA9001D97401F0A374011E
:1004D700F0A374D5F00205679001CFE0FBA3E0FA23
:1004E700A3E0F9900001120584FF9001D5E0FEEF2B
:1004F7008EF0A4FF9001D2E0FBA3E0FAA3E0F9900D
:100507000003EF1205D3E92403F9E43AFA9001D97D
:100517007401F0A37401F0A374D5F080439001CF68
:10052700E0FBA3E0FAA3E0F9900001120584FF9035
:1005370001D5E0FEEF8EF0A4FF9001D2E0FBA3E02F
:10054700FAA3E0F9900004EF1205D3E92404F9E4D3
:100557003AFA9001D97401F0A37401F0A374D5F0AD
:04056700120B9922B8
:100B99009001D6EBF0A3EAF0A3E9F0A3E0FBA3E010
:100BA900FAA3E0F912056BFFB401179001D6E0FB37
:100BB900A3E0FAA3E0F912056BD394CD400474CDF8
:100BC9008018EFB4FF179001D6E0FBA3E0FAA3E089
:0E0BD900F912056BD394CD4004E412060622F7
:0F0049004201FC80004201FA80014201F880026E
:100BE700E4FFFE0FBF00010EBE2EF8BFE0F5120FA7
:100BF700419001FCE0FEA3E0F5828E837438F01289
:100C07000F419001FCE0FEA3E0F5828E83740CF0A7
:100C1700120F7F120F419001FCE0FEA3E0F5828ED8
:040C2700837406F0DC
:010C2B0022A6
:100CF1009001CFEFF0A3EDF0A3EBF0120F419001C3
:100D0100D0E0FF1200039001D1E02FFF9001FCE041
:100D1100FCA3E0F5828C83EFF0120F419001CFE04C
:0F0D2100FF9001F8E0FCA3E0F5828C83EFF02255
:0E0C6F009001CAEBF0A3EAF0A3E9F0A3EDF0C8
:100C7D00E4A3F0F09001CAE0FBA3E0FAA3E0F99041
:100C8D0001CEE0FEF582758300120584FF9001CD43
:100C9D00E0FDAB06120CF19001CEE004F0E0C39440
:030CAD001440D11F
:010CB0002221
:0B0D6E009001C6EBF0A3EAF0A3E9F04F
:100D7900E4A3F09001C9E0FFC394045024EF75F097
:100D890015A4FF9001C6E0FBA3E0FAA3E02FF9EA5E
:100D990035F0FAA3E0FD120C6F9001C9E004F08070
:010DA900D277
:010DAA002226
:100F7F00120F419001FCE0FEA3E0F5828E83740115
:020F8F00F0224E
:100F41009001FAE0FEA3E0F5828E83E020E7F1E470
:060F5100FF0FEFB40AFBE4
:010F57002277
:10000300EF14600E14600F1460102403700E7E80D2
:0E001300800A7EC080067E9480027ED4AF06F6
:0100210022BC
:1000580045000A6666666600450003FFFFFFFFFF6E
:1000680041000F034200010005420008000044005F
:100078001066664C004100000060540172313A3647
:100088003620323A363620333A363620343A363647
:100098002000353A363620583A464620593A4646E0
:1000A80020503A46462000423A464620506F69643E
:1000B8003A417563756E202020202000303520736A
:1000C80065713A3020737465703A30204F66664C1B
:1000D80000615E0014FFFFFFFFFFFFFFFFFFFFFF50
:1000E800FFFFFFFFFFFFFFFFFFFFFFFFFFFFFFFF18
:1000F800FFFFFFFFFFFFFFFFFFFFFFFFFFFFFFFF08
:10010800FFFFFFFFFFFFFFFFFFFFFFFFFFFFFFFFF7
:10011800FFFFFFFFFFFFFFFFFFFFFFFFFFFFFFFFE7
:10012800FFFFFFFFFFFFFFFFFFFFFFFFFFFFFFFFD7
:10013800FFFFFFFFFFFFFFFFFFFFFFFFFFFFFFFFC7
:10014800FFFFFFFFFFFFFFFFFFFFFFFFFFFFFFFFB7
:10015800FFFFFFFFFFFFFFFFFFFFFFFFFFFFFFFFA7
:10016800FFFFFFFFFFFFFFFFFFFFFFFFFFFFFFFF97
:10017800FFFFFFFFFFFFFFFFFFFFFFFFFFFFFFFF87
:10018800FFFFFFFFFFFFFFFFFFFFFFFFFFFFFFFF77
:10019800FFFFFFFFFFFFFFFFFFFFFFFFFFFFFFFF67
:1001A800FFFFFFFFFFFFFFFFFFFFFFFFFFFFFFFF57
:1001B800FFFFFFFFFFFFFFFFFFFFFFFFFFFFFFFF47
:1001C800FFFFFFFFFFFFFFFFFFFFFFFFFFFFFFFF37
:1001D800FFFFFFFFFFFFFFFFFFFFFFFFFFFFFFFF27
:1001E800FFFFFFFFFFFFFFFFFFFFFFFFFFFFFFFF17
:1001F800FFFFFFFFFFFFFFFFFFFFFFFFFFFFFFFF07
:10020800FFFFFFFFFFFFFFFFFFFFFFFFFFFFFFFFF6
:10021800FFFFFFFFFFFFFFFFFFFFFFFFFFFFFFFFE6
:10022800FFFFFFFFFFFFFFFFFFFFFFFFFFFFFFFFD6
:03023800FFFFFFC6
:100DAB00120F91120BE7120FB27B017A01797212BB
:100DBB000D6E120DE8900000E070F7120CB190016F
:100DCB00C97401F0A37400F0A37401F0A37401F0D3
:0D0DDB00A37400F0A3740AF012088980D5FB
:100DE8007B017A00790A12068F7B017A0079031257
:100DF80007A87B017A00790F1209647B017A0079D0
:100E080001120C2C7B017A007908120D307B017AD3
:060E1800007910020B46F8
:100F9100759850438920758DFF438780D28ED299F1
:010FA100222D
:10068F009001C6EBF0A3EAF0A3E9F09001C6E0FBFE
:10069F00A3E0FAA3E0F9E4FD120E1E7B02E4FD12C3
:1006AF000CF19001C6E0FBA3E0FAA3E0F97D011283
:1006BF000E1E7B03E4FD120CF19001C6E0FBA3E0DC
:1006CF00FAA3E02401F9E43AFAE4FD120E1E7B07C7
:1006DF00E4FD120CF19001C6E0FBA3E0FAA3E024C5
:1006EF0001F9E43AFA7D01120E1E7B08E4FD120CAB
:1006FF00F19001C6E0FBA3E0FAA3E02402F9E43A8B
:10070F00FAE4FD120E1E7B0CE4FD120CF19001C6F3
:10071F00E0FBA3E0FAA3E02402F9E43AFA7D011228
:10072F000E1E7B0DE4FD120CF19001C6E0FBA3E061
:10073F00FAA3E02403F9E43AFAE4FD120E1E7B114A
:10074F00E4FD120CF19001C6E0FBA3E0FAA3E02454
:10075F0003F9E43AFA7D01120E1E7B12E4FD120C2E
:10076F00F19001C6E0FBA3E0FAA3E02404F9E43A18
:10077F00FAE4FD120E1E7B027D01120CF19001C6F0
:10078F00E0FBA3E0FAA3E02404F9E43AFA7D0112B6
:09079F000E1E7B037D01020CF12A
:1007A8009001C6EBF0A3EAF0A3E9F09001C6E0FBE4
:1007B800A3E0FAA3E0F9E4FD120E1E7B077D011207
:1007C8000CF19001C6E0FBA3E0FAA3E0F97D011269
:1007D8000E1E7B087D01120CF19001C6E0FBA3E020
:1007E800FAA3E02401F9E43AFAE4FD120E1E7B0CA8
:1007F8007D01120CF19001C6E0FBA3E0FAA3E0240E
:1008080001F9E43AFA7D01120E1E7B0D7D01120CEE
:10081800F19001C6E0FBA3E0FAA3E02402F9E43A70
:10082800FAE4FD120E1E7B117D01120CF19001C637
:10083800E0FBA3E0FAA3E02402F9E43AFA7D01120E
:100848000E1E7B127D01120CF19001C6E0FBA3E0A5
:10085800FAA3E02403F9E43AFAE4FD120E1E7B023F
:100868007D02120CF19001C6E0FBA3E0FAA3E0249C
:1008780003F9E43AFA7D01120E1E7B037D02020C95
:01088800F17E
:100964009001C6EBF0A3EAF0A3E9F09001C6E0FB26
:10097400A3E0FAA3E0F9120AE612056BFF7B0A7DF5
:1009840002120CF19001C6E0FBA3E0FAA3E0F91215
:100994000AE6900001120584FF7B0B7D02120CF124
:1009A4009001C6E0FBA3E0FAA3E0F9120AE6900086
:1009B40002120584FF7B0C7D02120CF19001C6E04B
:1009C400FBA3E0FAA3E0F9120AE6900003120584FF
:1009D400FF7B0D7D02120CF19001C6E0FBA3E0FA4F
:1009E400A3E0F9120AE6900004120584FF7B0E7D51
:0409F40002020CF1FE
:100C2C009001C6EBF0A3EAF0A3E9F09001C6E0FB5B
:100C3C00A3E0FAA3E02401F9E43AFA7D01120E7B59
:100C4C00E4FB7D03120CF19001C6E0FBA3E0FAA3D8
:100C5C00E02401F9E43AFA7D02120E7B7B017D035C
:030C6C00020CF186
:100D30009001C6EBF0A3EAF0A3E9F09001C6E0FB56
:100D4000A3E0FAA3E0F912056B2430FF7B077D03D3
:100D5000120CF19001C6E0FBA3E0FAA3E0F99000C9
:0E0D6000011205842430FF7B0E7D03020CF18E
:100B46009001C6EBF0A3EAF0A3E9F09001C6E0FB42
:100B5600A3E0FAA3E0F912056BFF7B117D03120CEB
:100B6600F19001C6E0FBA3E0FAA3E0F990000112C0
:100B76000584FF7B127D03120CF19001C6E0FBA3F6
:100B8600E0FAA3E0F9900002120584FF7B137D03CF
:030B9600020CF15D
:0F0FB2005389F0438901E4F58A758C4CD28C2267
:100F2900426C65752000566572742000526F7567B2
:080F39006500417563756E004F
:100E1E00ED700712056BFFC48007EDB4010B1205D0
:100E2E006B540F9001C9F080069001C97420F07BBD
:0F0E3E00017A0179C9120ED29001C9EFF0E0FFDD
:010E4D002282
:100E7B00ED700812056B75F064800AEDB401091270
:100E8B00056B75F00A84800DEDB4020E12056B75BF
:0C0E9B00F00A84E5F02430FF80027F2084
:010EA7002228
:0B0AE6009001C9EBF0A3EAF0A3E9F0D7
:100AF10012056BFF70109001CC74FFF0A3740FF01E
:100B0100A37429F08033EFB401109001CC74FFF08D
:100B1100A3740FF0A3742FF0801FEF9001CCB402E7
:100B21000D74FFF0A3740FF0A37435F0800B74FF04
:100B3100F0A3740FF0A3743BF09001CCE0FBA3E0B1
:040B4100FAA3E0F93A
:010B4500228D
:100ED20012056BFED394095006EE2430FF801112E6
:100EE200056BFED3940F5006EE2437FF80027F205D
:010EF20022DD
:030000000209F8FA
:0C09F800787FE4F6D8FD758107020A3F05
:10056B00BB010689828A83E0225002E722BBFE028E
:09057B00E32289828A83E49322C1
:10058400BB010CE58229F582E5833AF583E022502C
:1005940006E92582F8E622BBFE06E92582F8E22276
:0D05A400E58229F582E5833AF583E4932290
:1005B100BB010989828A83F8E028F022500327F7DA
:1005C10022BBFE05F8E328F3228A838982F8E493AB
:0205D1002822DE
:1005D300BB010FF8E58229F582E5833AF583E0282C
:1005E300F0225009C58229F8E58226F622BBFE09CE
:1005F300C58229F8E22582F222F8EA2583F583E908
:0306030093282217
:10060600BB010689828A83F0225002F722BBFE01D3
:02061600F322CD
:10061800F8BB010DE58229F582E5833AF583E8F018
:10062800225006E92582C8F622BBFE05E92582C8C4
:02063800F222AC
:10063A00BC000BBE0029EF8DF084FFADF022E4CCA4
:10064A00F875F008EF2FFFEE33FEEC33FCEE9DEC6D
:10065A00984005FCEE9DFE0FD5F0E9E4CEFD22EDB3
:10066A00F8F5F0EE8420D21CFEADF075F008EF2FFD
:10067A00FFED33FD4007985006D5F0F222C398FDEE
:05068A000FD5F0EA228B
:100A0400020DABE493A3F8E493A34003F68001F250
:100A140008DFF48029E493A3F85407240CC8C333F3
:100A2400C4540F4420C8834004F456800146F6DFC2
:100A3400E4800B0102040810204080900026E47E2C
:100A4400019360BCA3FF543F30E509541FFEE493B7
:100A5400A360010ECF54C025E060A840B8E493A37E
:100A6400FAE493A3F8E493A3C8C582C8CAC583CAA9
:100A7400F0A3C8C582C8CAC583CADFE9DEE780BE61
:01023B0000C2
:00000001FF
