:0815930066664C006E4C20005E
:100C83004500646666666600430054000000450044
:100C93005CFFFFFFFFFF4100630342005700054273
:100CA30000610000430059FF159360540000313A7E
:100CB300363620323A363620333A363620343A3610
:100CC300362000353A363620583A464620593A46B9
:100CD3004620503A46462000423A464620506F6925
:100CE300643A417563756E20202020200030352042
:100CF3007365713A3020737465703A30204F6666BD
:020D03004C00A2
:100557001215621212341215847B017A0079001287
:1005670013B81215B31215ADEF70030205FB121580
:100577009BEF700302062790006C7401F0A37400D0
:10058700F0A37462F0E41212BB900064EFF09000E5
:100597006C7401F0A37400F0A37462F0A37401F00B
:1005A700FB1212BF900065EFF090006C7401F0A38E
:1005B7007400F0A37462F074021212BB900066EF2D
:1005C700F090006C7401F0A37400F0A37462F074EF
:1005D700031212BB900067EFF090006C7401F0A358
:1005E7007400F0A37462F0A374041212BC90006844
:1005F700EFF0802C1212FB90006C7401F0A37400D2
:10060700F0A37457F0A37401F0A37400F0A374640B
:10061700F0A37401F0A37400F0A37461F01203ED6A
:10062700308D097B017A007954121513900054E03C
:10063700D394054010E4F090005974FFF0A37415AB
:10064700F0A37493F0900055E0D394034005E4F0D1
:100657001213F5900056E0D394274023E4F07B0172
:1006670090006C04F0A37400F0A37461F0A3EBF0A6
:10067700A37400F0A37463F07A00795C1200261269
:10068700159BEF601FE4900054F090005974FFF041
:10069700A37415F0A37497F01215A17B017A007962
:1006A70064120EC77B017A00795C12081302056C8D
:1013F5007B017A00796412096C7B017A00795C12B1
:101405000AAD7B017A007963120E4A7B017A007975
:101415005712115D7B017A00796112137A90005998
:0B142500E0FBA3E0FAA3E0F902106F67
:0812BB00A3F07B017A007961C8
:1012C3001206B7FF7E007C007D32120786AC06ADA6
:1012D3000790006CE0FBA3E0FAA3E0F91206B775F0
:1012E300F005A42DFFEC35F0FE90006FE07C002F9D
:0712F300FFEC3EFE1211EFBB
:0112FA0022D1
:10152A00D2941214CCC2941214CEC2957F027E00B9
:03153A000214D2C6
:10153D00C294C2951214CE1214CCD2947F027E00A6
:03154D000214D2B3
:1014B400EF6004D2948002C2941214CE1214CCC2EF
:0814C400957F027E000214D2A4
:101479009000777401F0D2941214CE1214CC2094F7
:1014890005E4900077F0C2951214CE900077E0FF42
:011499002230
:0511A800900073EFF060
:1011AD00E4A3F0A3F0900073E030E7047F01800228
:1011BD00E4FF1214B4900073E0FF25E0F090007589
:1011CD00E004F07006900074E004F0C3900075E048
:1011DD009408900074E06480948040C9D2951214F4
:0111ED007988
:0111EE0022DE
:05111000900073EFF0F8
:10111500E4A3F0A3F0A3F0900074E0FF25E0F01243
:101125001479EF6006900074E004F0900076E00416
:10113500F07006900075E004F0C3900076E0940826
:10114500900075E06480948040CD900073E0FF12BC
:0711550014B4900074E0FFE8
:01115C002270
:0811EF00900070EEF0A3EFF098
:1011F700E4A3F012152A7FA01211A8900070E0FF57
:10120700900072F01211A8900070A3E0FFA3F012F3
:1012170011A812152A7FA11211A87F01121110908F
:0C1227000072EFF012153D900072E0FF25
:011233002298
:0614CC00D2957F027E00B4
:1014D200E4FDFCC3ED9FEC9E50070DBD00010C80A6
:0114E200F217
:0114E30022E6
:100D05005000823132334134353642373839432A3F
:030D150030234444
:1012FB009000697420F0E4FF20922E12152A7F29AA
:10130B001211A8EF600280217FFF1211109000696B
:10131B00EFF012153D900069E0540F2482F582E442
:0F132B003400F583E0900069F07B017A00796966
:01133A002290
:1003ED001206B71207ED049E2304842A0466300416
:1003FD001B3104293204383304473404563504C5FF
:10040D004104CA42050143053144000005569000E0
:10041D006CE0FBA3E0FAA3E0F9E4803A90006CE015
:10042D00FBA3E0FAA3E0F97401802B90006CE0FBD4
:10043D00A3E0FAA3E0F97402801C90006CE0FBA32A
:10044D00E0FAA3E0F97403800D90006CE0FBA3E0EB
:10045D00FAA3E0F9740402075290006CE0FBA3E0EC
:10046D00FAA3E0F99000011206D02404FFE433FE54
:10047D007C007D1402054C90006FE0F9A3E0FAA317
:10048D00E0900078C9F0A3EAF0A3E9F0A374FF802F
:10049D001890006FE0F9A3E0FAA3E0900078C9F09E
:1004AD00A3EAF0A3E9F0A37401F090006CE0FBA3C4
:1004BD00E0FAA3E0F90202697F050215A790006F2B
:1004CD00E0FBA3E0FAA3E0F9741012075290006F5D
:1004DD00E0FBA3E0FAA3E0F9900001744C1207646D
:1004ED00900002E4120764900003745512076490A3
:1004FD000004802D900072E0FBA3E0FAA3E0F91256
:10050D0006B72401FFE433FE7C007D07120798ED4A
:10051D00120752900072E0FBA3E0FAA3E0F99000FD
:10052D0001E48022900072E0FBA3E0FAA3E0F990D1
:10053D0000011206D02401FFE433FE7C007D0A1277
:0A054D000798900001ED12076422E8
:10026900900075EBF0A3EAF0A3E9F0900075E0FBCC
:10027900A3E0FAA3E0F91206B71460501470030260
:10028900031B1470030203611470030203A6240400
:1002990060030203EC9000011206D0FF90007BE09E
:1002A900FEEF8EF0A4FF900078E0FBA3E0FAA3E054
:1002B900F9EF1206FD90007F7401F0A37400F0A31A
:1002C900747BF0900078A3A3E00203E9900075E045
:1002D900FBA3E0FAA3E0F99000011206D0FF900019
:1002E9007BE0FEEF8EF0A4FF900078E0FBA3E0FA3C
:1002F900A3E0F9900001EF12071FE92401F9E43A9C
:10030900FA90007F7401F0A37400F0A3747BF002EB
:1003190003E9900075E0FBA3E0FAA3E0F99000017E
:100329001206D0FF90007BE0FEEF8EF0A4FF900054
:1003390078E0FBA3E0FAA3E0F9900002EF12071FAF
:10034900E92402F9E43AFA90007F7401F0A37400F9
:10035900F0A3747BF00203E9900075E0FBA3E0FAD7
:10036900A3E0F99000011206D0FF90007BE0FEEFB8
:100379008EF0A4FF900078E0FBA3E0FAA3E0F990E7
:100389000003EF12071FE92403F9E43AFA90007F0A
:100399007401F0A37400F0A3747BF080439000759E
:1003A900E0FBA3E0FAA3E0F99000011206D0FF9068
:1003B900007BE0FEEF8EF0A4FF900078E0FBA3E065
:1003C900FAA3E0F9900004EF12071FE92404F9E405
:1003D9003AFA90007F7401F0A37400F0A3747BF0E3
:0403E9001210C2220A
:1010C20090007CEBF0A3EAF0A3E9F0A3E0FBA3E03D
:1010D200FAA3E0F91206B7FFB4011790007CE0FB17
:1010E200A3E0FAA3E0F91206B7D394CD400474CD7D
:1010F2008018EFB4FF1790007CE0FBA3E0FAA3E0B6
:0E110200F91206B7D394CD4004E4120752222E
:0F0D18004200A380004200A1800142009F8002A0
:10123400E4FFFE0FBF00010EBE2EF8BFE0F512144E
:10124400FC9000A3E0FEA3E0F5828E837438F012D4
:1012540014FC9000A3E0FEA3E0F5828E83740CF0EE
:101264001215501214FC9000A3E0FEA3E0F5828E48
:04127400837406F089
:011278002253
:10133B00900072EFF0A3EDF0A3EBF01214FC900011
:10134B0073E0FF120003900074E02FFF9000A3E006
:10135B00FCA3E0F5828C83EFF01214FC900072E09A
:0F136B00FF90009FE0FCA3E0F5828C83EFF0225F
:0E12790090006DEBF0A3EAF0A3E9F0A3EDF016
:10128700E4A3F0F090006DE0FBA3E0FAA3E0F9908F
:101297000071E0FEF5827583001206D0FF900070A2
:1012A700E0FDAB0612133B900071E004F0E0C3943D
:0312B7001440D10F
:0112BA002211
:0B13B800900069EBF0A3EAF0A3E9F05D
:1013C300E4A3F090006CE0FFC394045024EF75F0A5
:1013D30015A4FF900069E0FBA3E0FAA3E02FF9EA6C
:1013E30035F0FAA3E0FD12127990006CE004F0806E
:0113F300D227
:0113F40022D6
:101550001214FC9000A3E0FEA3E0F5828E837401D8
:02156000F02277
:1014FC009000A1E0FEA3E0F5828E83E020E7F1E40A
:06150C00FF0FEFB40AFB23
:0115120022B6
:10000300EF14600E14600F1460102403700E7E80D2
:0E001300800A7EC080067E9480027ED4AF06F6
:0100210022BC
:10156200759850438920758DFD438780D28ED2991C
:011572002256
:10096C00900069EBF0A3EAF0A3E9F0900069E0FBDA
:10097C00A3E0FAA3E0F9E4FD120F411206B7FF7BE6
:10098C0002E4FD12133B900069E0FBA3E0FAA3E044
:10099C00F97D01120F411206B7FF7B03E4FD121320
:1009AC003B900069E0FBA3E0FAA3E02401F9E43AF0
:1009BC00FAE4FD120F411206B7FF7B07E4FD121398
:1009CC003B900069E0FBA3E0FAA3E02401F9E43AD0
:1009DC00FA7D01120F411206B7FF7B08E4FD1213DA
:1009EC003B900069E0FBA3E0FAA3E02402F9E43AAF
:1009FC00FAE4FD120F411206B7FF7B0CE4FD121353
:100A0C003B900069E0FBA3E0FAA3E02402F9E43A8E
:100A1C00FA7D01120F411206B7FF7B0DE4FD121394
:100A2C003B900069E0FBA3E0FAA3E02403F9E43A6D
:100A3C00FAE4FD120F411206B7FF7B11E4FD12130D
:100A4C003B900069E0FBA3E0FAA3E02403F9E43A4D
:100A5C00FA7D01120F411206B7FF7B12E4FD12134F
:100A6C003B900069E0FBA3E0FAA3E02404F9E43A2C
:100A7C00FAE4FD120F411206B7FF7B027D0112133F
:100A8C003B900069E0FBA3E0FAA3E02404F9E43A0C
:100A9C00FA7D01120F411206B7FF7B037D01021391
:010AAC003B0E
:100AAD00900069EBF0A3EAF0A3E9F0900069E0FB98
:100ABD00A3E0FAA3E0F9E4FD120F411206B7FF7BA4
:100ACD00077D0112133B900069E0FBA3E0FAA3E060
:100ADD00F97D01120F411206B7FF7B087D0112133C
:100AED003B900069E0FBA3E0FAA3E02401F9E43AAE
:100AFD00FAE4FD120F411206B7FF7B0C7D011213B4
:100B0D003B900069E0FBA3E0FAA3E02401F9E43A8D
:100B1D00FA7D01120F411206B7FF7B0D7D011213F5
:100B2D003B900069E0FBA3E0FAA3E02402F9E43A6C
:100B3D00FAE4FD120F411206B7FF7B117D0112136E
:100B4D003B900069E0FBA3E0FAA3E02402F9E43A4C
:100B5D00FA7D01120F411206B7FF7B127D011213B0
:100B6D003B900069E0FBA3E0FAA3E02403F9E43A2B
:100B7D00FAE4FD120F411206B7FF7B027D0212133C
:100B8D003B900069E0FBA3E0FAA3E02403F9E43A0B
:100B9D00FA7D01120F411206B7FF7B037D0202138E
:010BAD003B0C
:100E4A0012100F900069EBF0A3EAF0A3E9F0120682
:100E5A00B7FF7B0A7D0212133B900069E0FBA3E017
:100E6A00FAA3E0F99000011206D0FF7B0B7D021273
:100E7A00133B900069E0FBA3E0FAA3E0F9900002BB
:100E8A001206D0FF7B0C7D0212133B900069E0FB37
:100E9A00A3E0FAA3E0F99000031206D0FF7B0D7DD0
:100EAA000212133B900069E0FBA3E0FAA3E0F99079
:0D0EBA0000041206D0FF7B0E7D0202133BE8
:10115D00900069EBF0A3EAF0A3E9F0900069E0FBE1
:10116D00A3E0FAA3E02401F9E43AFA7D01120DCCD3
:10117D001206B7FFE4FB7D0312133B900069E0FB01
:10118D00A3E0FAA3E02401F9E43AFA7D02120DCCB2
:0B119D001206B7FF7B017D0302133B2D
:10137A00900069EBF0A3EAF0A3E9F0900069E0FBC2
:10138A00A3E0FAA3E0F91206B72430FF7B077D0336
:10139A0012133B900069E0FBA3E0FAA3E0F9900086
:0E13AA00011206D02430FF7B0E7D0302133BA0
:10106F00900069EBF0A3EAF0A3E9F0900069E0FBD0
:10107F00A3E0FAA3E0F91206B7FF7B117D03121369
:10108F003B900069E0FBA3E0FAA3E0F990000112A6
:10109F0006D0FF7B127D0312133B900069E0FBA388
:1010AF00E0FAA3E0F99000021206D0FF7B137D0354
:0310BF0002133BDE
:0F1584005389F0438901E4F58A758C4CD28C228F
:10151300C28D74011206FD900001740112071F9021
:071523000002740102071F22
:1014E400426C65752000566572742000526F7567F2
:0814F4006500417563756E008F
:0B0F410090006CEBF0A3EAF0A3E9F0D5
:100F4C00ED701190006CE0FBA3E0FAA3E0F912063F
:100F5C00B7C48012EDB4011F90006CE0FBA3E0FA63
:100F6C00A3E0F91206B7540FFF90006FE0FBA3E06B
:100F7C00FAA3E0F9EF800D90006FE0FBA3E0FAA379
:100F8C00E0F9742012075290006FE0FBA3E0FAA383
:100F9C00E0F912145790006FE0FBA3E0FAA3E0F91C
:010FAC002222
:0B0DCC0090006CEBF0A3EAF0A3E9F04C
:100DD700ED701390006CE0FBA3E0FAA3E0F91206B4
:100DE700B775F0648015EDB4011490006CE0FBA3B7
:100DF700E0FAA3E0F91206B775F00A848018EDB49B
:100E0700022590006CE0FBA3E0FAA3E0F91206B715
:100E170075F00A84E5F02430FF90006FE0FBA3E053
:100E2700FAA3E0F9EF800D90006FE0FBA3E0FAA3CF
:100E3700E0F9742012075290006FE0FBA3E0FAA3D9
:020E4700E0F9D0
:010E49002286
:0B100F0090006CEBF0A3EAF0A3E9F006
:10101A001206B7FF701090006F74FFF0A37414F0FB
:10102A00A374E4F08033EFB4011090006F74FFF002
:10103A00A37414F0A374EAF0801FEF90006FB40257
:10104A000D74FFF0A37414F0A374F0F0800B74FF16
:10105A00F0A37414F0A374F6F090006FE0FBA3E021
:04106A00FAA3E0F90C
:01106E00225F
:101457001206B7FFD394095005EF24308010120607
:10146700B7FFD3940F5005EF24378002742012077B
:021477005222FF
:100D27004100950041009300410094004100960066
:040D370041009200E5
:0515B300D2ACD2AF2212
:03002300020FAD1C
:100FAD00C0E0C0F0C083C082C0D075D000C000C00A
:100FBD0001C002C003C004C005C006C0073098229E
:100FCD001215B8900096EFF0900095E0FE2497F57D
:100FDD0082E43400F583EFF0EE045407900095F0B1
:100FED00C298309902C299D007D006D005D004D04E
:100FFD0003D002D001D000D0D0D082D083D0F0D099
:02100D00E032CF
:0215B800AF99E9
:0115BA00220E
:10081300E4FF900093E0FE900095E06E7003020900
:100823006B900094E0B40800400302096B90083712
:10083300F828287302084F02087D0208AF0208CD8A
:100843000208EF020911020933020942900093E002
:10085300FD2497F582E43400F583E0FF74972DF5CA
:1008630082E43400F583E4F0EE045407900093F03F
:10087300EF6447600302096B804B900093E0FE2412
:1008830097F582E43400F583E0FF74972EF582E454
:100893003400F583E4F0900093E0045407F0EFB4E0
:1008A3004F028021900094E01402093E900093E0EF
:1008B3002497F582E43400F583E012075290009305
:1008C300E0045407F0A3E0048071900093E0FF2458
:1008D30097F582E43400F583E0900001120764EF9A
:1008E300045407900093F0A3E004804F900093E03A
:1008F300FF2497F582E43400F583E09000021207A9
:1009030064EF045407900093F0A3E004802D90005B
:1009130093E0FF2497F582E43400F583E09000032D
:10092300120764EF045407900093F0A3E004800BD4
:10093300900093E0045407F0A3E0045407F02290DE
:100943000093E0FF2497F582E43400F583E0900000
:1009530004120764EF045407900093F0A3E00454D7
:0809630007F09000927401F00E
:01096B002269
:100EC700900069EBF0A3EAF0A3E9F07F47121578E9
:100ED7007F4F121578900069E0FBA3E0FAA3E0F9D1
:100EE7001206B7FF121578900069E0FBA3E0FAA39A
:100EF700E0900001121573900069E0FBA3E0FAA3EC
:100F0700E0900002121573900069E0FBA3E0FAA3DA
:100F1700E0F9900003121574900069E0FBA3E0FA72
:100F2700A3E0F9900004121574900069E0FBA3E0B8
:0A0F3700FAA3E0F912143002157855
:101430009000011206D0FF1206B724962FFF9000ED
:10144000021206D02FFF9000031206D02FFF90004B
:06145000041206D02FFF7C
:011456002273
:05157300F91206D0FF93
:0C157800C2AC8F993099FDC299D2AC2210
:06159B00900092E0FF2227
:0615A100E4900092F0222C
:040D3B004100A500CE
:10002600900069EBF0A3EAF0A3E9F09000A5E0B434
:1000360007004003020268900044F8282873020073
:100046005902007C0200FF0201260201810201B56D
:100056000201DD90006CE0F9A3E0FAA3E0900075E0
:10006600C9F0A3EAF0A3E9F0900069E0FBA3E0FA87
:10007600A3E0F9020BAE90006CE0FBA3E0FAA3E06C
:10008600F9900001740112071F9000011206D06456
:1000960004600302026890006CE0FBA3E0FAA3E0B0
:1000A600F9740312075290006CE0FBA3E0FAA3E098
:1000B600F9900001E41207649000A57402F0900024
:1000C60069E0FBA3E0FAA3E0F99000021206D0D3A0
:1000D60094C7500302026890006CE0FBA3E0FAA309
:1000E600E0F9740412075290006CE0FBA3E0FAA357
:1000F600E0F99000017405807890006CE0FBA3E0C5
:10010600FAA3E0F9900001740112071F9000011292
:1001160006D0640260030202689000A57403F02210
:10012600900069E0FBA3E0FAA3E02403F9E43AFABD
:1001360012149A90006CE0FBA3E0FAA3E0F9EF1228
:10014600075290006CE0FBA3E0FAA3E0F91206B7B1
:1001560024FCFF90006FE0FBA3E0FAA3E0F9EF12A6
:10016600075290006CE0FBA3E0FAA3E0F9900001CF
:10017600E41207649000A57404F02290006CE0FB82
:10018600A3E0FAA3E0F9900001740112071F9000A2
:10019600011206D0640660030202689000A5F09082
:1001A600006FE0FBA3E0FAA3E0F9740402075290A3
:1001B600006CE0FBA3E0FAA3E0F9E412075290001A
:1001C6006CE0FBA3E0FAA3E0F9900001E4120764F7
:1001D6009000A57406F02290006CE0FBA3E0FAA361
:1001E600E0F9900001740112071F9000011206D079
:1001F600C39404401790006CE0FBA3E0FAA3E0F977
:1002060074011206FD900001E412076490006CE090
:10021600FBA3E0FAA3E0F91206B7FFB403187404CF
:1002260012075290006CE0FBA3E0FAA3E0F99000FD
:10023600017405020764EFC39404402690006CE045
:10024600FBA3E0FAA3E0F9E412075290006CE0FB8E
:10025600A3E0FAA3E0F9900001E4120764E4900039
:03026600A5F022DE
:100BAE00900072EBF0A3EAF0A3E9F0900072E0FB84
:100BBE00A3E0FAA3E0F91206B7FFC394004026EFB4
:100BCE00D3946050209000011206D0FFC3940040D1
:100BDE0014EFD39470500E900075E0FBA3E0FAA3CF
:100BEE00E0F9E48074900072E0FBA3E0FAA3E0F970
:100BFE001206B7FFC394604027EFD394A050219004
:100C0E0000011206D0FFC394C04015EFD394FF50DD
:100C1E000F900075E0FBA3E0FAA3E0F974018039B0
:100C2E00900072E0FBA3E0FAA3E0F91206B7FFC34F
:100C3E0094A04040EFD394FF503A9000011206D09A
:100C4E00FFC39470402EEFD394C05028900075E0EF
:100C5E00FBA3E0FAA3E0F97402120752900075E0CC
:100C6E00FBA3E0FAA3E0F9900001E4120764900000
:050C7E00A57401F02245
:10149A001206B7FEC3944050047F04800CEEC39436
:0914AA007050047F0580027F06EA
:0114B3002216
:0615A7009000A5EFF02208
:0615AD009000A5E0FF2202
:03000000020D40AE
:0C0D4000787FE4F6D8FD758107020D876E
:1006B700BB010689828A83E0225002E722BBFE0241
:0906C700E32289828A83E4932274
:1006D000BB010CE58229F582E5833AF583E02250DF
:1006E00006E92582F8E622BBFE06E92582F8E22229
:0D06F000E58229F582E5833AF583E4932243
:1006FD00BB010989828A83F8E028F022500327F78D
:10070D0022BBFE05F8E328F3228A838982F8E4935D
:02071D00282290
:10071F00BB010FF8E58229F582E5833AF583E028DE
:10072F00F0225009C58229F8E58226F622BBFE0980
:10073F00C58229F8E22582F222F8EA2583F583E9BA
:03074F00932822CA
:10075200BB010689828A83F0225002F722BBFE0186
:02076200F32280
:10076400F8BB010DE58229F582E5833AF583E8F0CB
:10077400225006E92582C8F622BBFE05E92582C877
:02078400F2225F
:10078600EF8DF0A4A8F0CF8CF0A428CE8DF0A42E87
:02079600FE2241
:10079800BC000BBE0029EF8DF084FFADF022E4CC45
:1007A800F875F008EF2FFFEE33FEEC33FCEE9DEC0E
:1007B800984005FCEE9DFE0FD5F0E9E4CEFD22ED54
:1007C800F8F5F0EE8420D21CFEADF075F008EF2F9E
:1007D800FFED33FD4007985006D5F0F222C398FD8F
:0507E8000FD5F0EA222C
:1007ED00D083D082F8E4937012740193700DA3A39B
:1007FD0093F8740193F5828883E4737402936860AF
:06080D00EFA3A3A380DFAE
:100D4C00020557E493A3F8E493A34003F68001F261
:100D5C0008DFF48029E493A3F85407240CC8C333A8
:100D6C00C4540F4420C8834004F456800146F6DF77
:100D7C00E4800B0102040810204080900C83E47E78
:100D8C00019360BCA3FF543F30E509541FFEE4936C
:100D9C00A360010ECF54C025E060A840B8E493A333
:100DAC00FAE493A3F8E493A3C8C582C8CAC583CA5E
:100DBC00F0A3C8C582C8CAC583CADFE9DEE780BE16
:010D3F0000B3
:00000001FF
