:0F08BA00D2B47F017E001208C9D2B57F017E0043
:1008C900D3EF9400EE94004007EF1F70F31E80F001
:0108D90022FC
:100964001208BAC2B41208C5C2B57F017E000208DB
:01097400C9B9
:10098600C2B4C2B51208BCD2B47F017E000208C947
:1008F900C2B5EFB4FF04D2B48002C2B41208BCC2BC
:08090900B57F017E000208C960
:100940007DFF1208BA20B402E4FDC2B51208C5AF9B
:0109500005A1
:010951002283
:02084C00AD07F6
:10084E00E4FBFAE4FCED5480B480027CFFAF0412AA
:10085E0008F91208C5ED25E0FD0BBB00010AEB649B
:07086E00084A70DF12094087
:010875002260
:0207F200A90755
:1007F400E4FCFBFAEC25E0FC120940AD071208C545
:10080400EDB4FF04EC4401FC0BBB00010AEB6408EB
:0A0814004A70E1AF011208F9AF04C9
:01081E0022B7
:0F0003004201D680004201D480014201D2800226
:10060800E4FFFE0FBF00010EBE2EF8BFE0F5120991
:10061800299001D6E0FEA3E0F5828E837438F012AB
:1006280009299001D6E0FEA3E0F5828E83740CF0D0
:100638001209521209299001D6E0FEA3E0F5828E34
:04064800837406F0C1
:01064C00228B
:1006D2009001CFEFF0A3EDF0A3EBF0120929900106
:1006E200D0E0FF1208DA9001D1E02FFF9001D6E0AE
:1006F200FCA3E0F5828C83EFF01209299001CFE090
:0F070200FF9001D2E0FCA3E0F5828C83EFF022A0
:0E0690009001CAEBF0A3EAF0A3E9F0A3EDF0AD
:10069E00E4A3F0F09001CAE0FBA3E0FAA3E0F99026
:1006AE0001CEE0FEF5827583001205DBFF9001CDD1
:1006BE00E0FDAB061206D29001CEE004F0E0C3944A
:0306CE001440D104
:0106D1002206
:0B074F009001C6EBF0A3EAF0A3E9F074
:10075A00E4A3F09001C9E0FFC394045024EF75F0BC
:10076A0015A4FF9001C6E0FBA3E0FAA3E02FF9EA83
:10077A0035F0FAA3E0FD1206909001C9E004F0807A
:01078A00D29C
:01078B00224B
:100952001209299001D6E0FEA3E0F5828E8374018C
:02096200F02281
:100929009001D4E0FEA3E0F5828E83E020E7F1E4B4
:06093900FF0FEFB40AFB02
:01093F002295
:1008DA00EF14600E14600F1460102403700E7E80F3
:0E08EA00800A7EC080067E9480027ED4AF0617
:0108F80022DD
:100012004500096666666600440003FFFFFFFF4174
:10002200000E034200010005420007000044000FD9
:1000320066664C004100000060540171313A363668
:1000420020323A363620333A363620343A363620A3
:1000520000353A363620583A464620593A46462026
:10006200503A46462000423A464620506F69643A6A
:10007200417563756E202020202000303520736585
:10008200713A3020737465703A30204F66664C00C6
:10009200615E0013FFFFFFFFFFFFFFFFFFFFFFFF98
:1000A200FFFFFFFFFFFFFFFFFFFFFFFFFFFFFFFF5E
:1000B200FFFFFFFFFFFFFFFFFFFFFFFFFFFFFFFF4E
:1000C200FFFFFFFFFFFFFFFFFFFFFFFFFFFFFFFF3E
:1000D200FFFFFFFFFFFFFFFFFFFFFFFFFFFFFFFF2E
:1000E200FFFFFFFFFFFFFFFFFFFFFFFFFFFFFFFF1E
:1000F200FFFFFFFFFFFFFFFFFFFFFFFFFFFFFFFF0E
:10010200FFFFFFFFFFFFFFFFFFFFFFFFFFFFFFFFFD
:10011200FFFFFFFFFFFFFFFFFFFFFFFFFFFFFFFFED
:10012200FFFFFFFFFFFFFFFFFFFFFFFFFFFFFFFFDD
:10013200FFFFFFFFFFFFFFFFFFFFFFFFFFFFFFFFCD
:10014200FFFFFFFFFFFFFFFFFFFFFFFFFFFFFFFFBD
:10015200FFFFFFFFFFFFFFFFFFFFFFFFFFFFFFFFAD
:10016200FFFFFFFFFFFFFFFFFFFFFFFFFFFFFFFF9D
:10017200FFFFFFFFFFFFFFFFFFFFFFFFFFFFFFFF8D
:10018200FFFFFFFFFFFFFFFFFFFFFFFFFFFFFFFF7D
:10019200FFFFFFFFFFFFFFFFFFFFFFFFFFFFFFFF6D
:1001A200FFFFFFFFFFFFFFFFFFFFFFFFFFFFFFFF5D
:1001B200FFFFFFFFFFFFFFFFFFFFFFFFFFFFFFFF4D
:1001C200FFFFFFFFFFFFFFFFFFFFFFFFFFFFFFFF3D
:1001D200FFFFFFFFFFFFFFFFFFFFFFFFFFFFFFFF2D
:1001E200FFFFFFFFFFFFFFFFFFFFFFFFFFFFFFFF1D
:0201F200FFFF0D
:100876001209751206081209967B017A017971121E
:10088600074F12078C900000E070F79001C5E064F6
:030896002080EFD0
:10078C007B017A0079091201F57B017A0079031259
:10079C00030E7B017A00790E1203EF7B017A00794C
:1007AC000112064D7B017A0079071207117B017A41
:0607BC0000790F02056F39
:10097500759850438920758DFF438780D28ED29913
:01098500224F
:1001F5009001C6EBF0A3EAF0A3E9F09001C6E0FB9D
:10020500A3E0FAA3E0F9E4FD1207C27B02E4FD12C4
:1002150006D29001C6E0FBA3E0FAA3E0F97D011246
:1002250007C27B03E4FD1206D29001C6E0FBA3E002
:10023500FAA3E02401F9E43AFAE4FD1207C27B07C8
:10024500E4FD1206D29001C6E0FBA3E0FAA3E02488
:1002550001F9E43AFA7D011207C27B08E4FD1206B2
:10026500D29001C6E0FBA3E0FAA3E02402F9E43A48
:10027500FAE4FD1207C27B0CE4FD1206D29001C61A
:10028500E0FBA3E0FAA3E02402F9E43AFA7D0112C7
:1002950007C27B0DE4FD1206D29001C6E0FBA3E088
:1002A500FAA3E02403F9E43AFAE4FD1207C27B114C
:1002B500E4FD1206D29001C6E0FBA3E0FAA3E02418
:1002C50003F9E43AFA7D011207C27B12E4FD120636
:1002D500D29001C6E0FBA3E0FAA3E02404F9E43AD6
:1002E500FAE4FD1207C27B027D011206D29001C617
:1002F500E0FBA3E0FAA3E02404F9E43AFA7D011255
:0903050007C27B037D010206D250
:10030E009001C6EBF0A3EAF0A3E9F09001C6E0FB82
:10031E00A3E0FAA3E0F9E4FD1207C27B077D011208
:10032E0006D29001C6E0FBA3E0FAA3E0F97D01122C
:10033E0007C27B087D011206D29001C6E0FBA3E046
:10034E00FAA3E02401F9E43AFAE4FD1207C27B0CA9
:10035E007D011206D29001C6E0FBA3E0FAA3E024D1
:10036E0001F9E43AFA7D011207C27B0D7D011206F6
:10037E00D29001C6E0FBA3E0FAA3E02402F9E43A2E
:10038E00FAE4FD1207C27B117D011206D29001C65E
:10039E00E0FBA3E0FAA3E02402F9E43AFA7D0112AD
:1003AE0007C27B127D011206D29001C6E0FBA3E0CC
:1003BE00FAA3E02403F9E43AFAE4FD1207C27B0241
:1003CE007D021206D29001C6E0FBA3E0FAA3E02460
:1003DE0003F9E43AFA7D011207C27B037D0202069D
:0103EE00D23C
:1003EF009001C6EBF0A3EAF0A3E9F09001C6E0FBA1
:1003FF00A3E0FAA3E0F912050F1205C2FF7B0A7DF5
:10040F00021206D29001C6E0FBA3E0FAA3E0F912B4
:10041F00050F9000011205DBFF7B0B7D021206D248
:10042F009001C6E0FBA3E0FAA3E0F912050F9000DC
:10043F00021205DBFF7B0C7D021206D29001C6E093
:10044F00FBA3E0FAA3E0F912050F9000031205DBFE
:10045F00FF7B0D7D021206D29001C6E0FBA3E0FAEE
:10046F00A3E0F912050F9000041205DBFF7B0E7D50
:04047F00020206D29D
:10064D009001C6EBF0A3EAF0A3E9F09001C6E0FB40
:10065D00A3E0FAA3E02401F9E43AFA7D0112081FA0
:10066D00E4FB7D031206D29001C6E0FBA3E0FAA3E2
:10067D00E02401F9E43AFA7D0212081F7B017D03A3
:03068D000206D290
:100711009001C6EBF0A3EAF0A3E9F09001C6E0FB7B
:10072100A3E0FAA3E0F91205C22430FF7B077D03A1
:100731001206D29001C6E0FBA3E0FAA3E0F9900013
:0E074100011205DB2430FF7B0E7D030206D281
:10056F009001C6EBF0A3EAF0A3E9F09001C6E0FB1F
:10057F00A3E0FAA3E0F91205C2FF7B117D03120677
:10058F00D29001C6E0FBA3E0FAA3E0F990000112BC
:10059F0005DBFF7B127D031206D29001C6E0FBA3A1
:1005AF00E0FAA3E0F99000021205DBFF7B137D0355
:0305BF000206D25F
:0F0996005389F0438901E4F58A758C4CD28C2289
:10091100426C65752000566572742000526F7567D0
:080921006500417563756E006D
:1007C200ED70071205C2FFC48007EDB4010B1205DC
:1007D200C2540F9001C9F080069001C97420F07BC9
:0F07E200017A0179C91208999001C9EFF0E0FF7F
:0107F10022E5
:10081F00ED70081205C275F064800AEDB40109127B
:10082F0005C275F00A84800DEDB4020E1205C27573
:0C083F00F00A84E5F02430FF80027F20E6
:01084B00228A
:0B050F009001C9EBF0A3EAF0A3E9F0B3
:10051A001205C2FF70109001CC74FFF0A37409F0A9
:10052A00A37411F08033EFB401109001CC74FFF082
:10053A00A37409F0A37417F0801FEF9001CCB402E2
:10054A000D74FFF0A37409F0A3741DF0800B74FFFF
:10055A00F0A37409F0A37423F09001CCE0FBA3E0AC
:04056A00FAA3E0F917
:01056E00226A
:100899001205C2FED394095006EE2430FF801112CE
:1008A90005C2FED3940F5006EE2437FF80027F2045
:0108B900221C
:0300000002048374
:0C048300787FE4F6D8FD7581070204CAFA
:1005C200BB010689828A83E0225002E722BBFE0237
:0905D200E32289828A83E493226A
:1005DB00BB010CE58229F582E5833AF583E02250D5
:1005EB0006E92582F8E622BBFE06E92582F8E2221F
:0D05FB00E58229F582E5833AF583E4932239
:10048F00020876E493A3F8E493A34003F68001F205
:10049F0008DFF48029E493A3F85407240CC8C3336E
:1004AF00C4540F4420C8834004F456800146F6DF3D
:1004BF00E4800B0102040810204080900003E47ECA
:1004CF00019360BCA3FF543F30E509541FFEE49332
:1004DF00A360010ECF54C025E060A840B8E493A3F9
:1004EF00FAE493A3F8E493A3C8C582C8CAC583CA24
:1004FF00F0A3C8C582C8CAC583CADFE9DEE780BEDC
:0101F400000A
:00000001FF
