:100026004101EE004101EC004101ED004101EF000C
:050FBF00D2ACD2AF220C
:03002300020A6D61
:100A6D00C0E0C0F0C083C082C0D075D000C000C04F
:100A7D0001C002C003C004C005C006C007309822E3
:100A8D00120FC49001EFEFF09001EEE0FE24F0F5AF
:100A9D0082E43401F583EFF0EE0454079001EEF09B
:100AAD00C298309902C299D007D006D005D004D093
:100ABD0003D002D001D000D0D0D082D083D0F0D0DE
:020ACD00E03215
:020FC400AF99E3
:010FC6002208
:0B023C009001FEEBF0A3EAF0A3E9F054
:10024700E4FB9001ECE0FE9001EEE06E7003020328
:10025700E69001EDE0FDB4080040030203E69002DA
:100267006CF82828730202840202B70202E902032B
:10027700150203450203740203A90203B69001ECB9
:10028700E0FC24F0F582E43401F583E0FB74F02C04
:10029700F582E43401F583E4F0EE0454079001ECB1
:1002A700F0EB644760030203E6ED045407A3F02272
:1002B7009001ECE0FF24F0F582E43401F583E0FBE4
:1002C70074F02FF582E43401F583E4F09001ECE05B
:1002D700045407F0EBB44F02802E9001EDE01402B6
:1002E70003E39001ECE024F0F582E43401F583E0C8
:1002F700FF9001FEE0FBA3E0FAA3E0F9EF12060688
:100307009001ECE0045407F0A3E0040203E390013A
:10031700ECE0FF24F0F582E43401F583E0FE900180
:10032700FEE0FBA3E0FAA3E0F9900001EE12061845
:10033700EF0454079001ECF0A3E0040203E39001FB
:10034700ECE0FF24F0F582E43401F583E0FE900150
:10035700FEE0FBA3E0FAA3E0F9900002EE12061814
:10036700EF0454079001ECF0A3E004806F9001ECD8
:10037700E0FF24F0F582E43401F583E0FE9001FE0E
:10038700E0FBA3E0FAA3E0F9900003EE120618EFF2
:100397000454079001ECF0A3E0045407F07F340203
:1003A7000FAA9001ECE0045407F0A3E004802D901D
:1003B70001ECE0FF24F0F582E43401F583E0FE90E0
:1003C70001FEE0FBA3E0FAA3E0F9900004EE1206B9
:0F03D70018EF0454079001ECF0A3E0045407F072
:0103E60022F4
:0C0FAA00C2AC8F993099FDC299D2AC22E4
:090FB6003098037F01227F002224
:0D0EDC007F017E00120EE9D2957F017E009D
:100EE900D3EF9400EE94004007EF1F70F31E80F0DB
:010EF90022D6
:100F5500D294120EE3C294120EE5C2957F017E0073
:030F6500020EE990
:100F8B00C294C295120EDCD2947F017E00020EE950
:100EFA00C295EFB4FF04D2948002C294120EDCC2EF
:080F0A00957F017E00020EE953
:100F41007DFFD294120EDC209402E4FDC295120EB4
:030F5100E5AF0504
:010F5400227A
:020E9100AD07AB
:100E9300E4FBFAE4FCED5480B480027CFFAF04125F
:100EA3000EFA120EE5ED25E0FD0BBB00010AEB6423
:070EB300084A70DF120F4135
:010EBA002215
:020E3700A90709
:100E3900E4FCFBFAEC25E0FC120F41AD07120EE5CC
:100E4900EDB4FF04EC4401FC0BBB00010AEB6408A0
:0A0E59004A70E1AF01120EFAAF0477
:010E6300226C
:100036005001DC3132334134353642373839432AC0
:0300460030234420
:100C9A009001C67420F0E4FF20922E120F557F298E
:100CAA00120E91EF600280217FFF120E379001C66B
:100CBA00EFF0120F8B9001C6E0540F24DCF582E4AA
:0F0CCA003401F583E09001C6F07B017A0179C611
:010CD90022F8
:1008890012056B24DD700302093C24F97003020987
:100899002224FA605F24FE601E14602A1460361454
:1008A9006042240460030209639001C9E0FBA3E0EC
:1008B900FAA3E0F9E4803A9001C9E0FBA3E0FAA3C6
:1008C900E0F97401802B9001C9E0FBA3E0FAA3E0F1
:1008D900F97402801C9001C9E0FBA3E0FAA3E0F9D6
:1008E9007403800D9001C9E0FBA3E0FAA3E0F97459
:1008F900040206069001C9E0FBA3E0FAA3E0F9901F
:1009090000011205842404FFE433FE7C007D1412E7
:10091900063A900001ED0206189001CCE0F9A3E037
:10092900FAA3E09001D2C9F0A3EAF0A3E9F0A37415
:10093900FF80189001CCE0F9A3E0FAA3E09001D27E
:10094900C9F0A3EAF0A3E9F0A37401F09001C9E0AA
:0B095900FBA3E0FAA3E0F91203E72281
:1003E7009001CFEBF0A3EAF0A3E9F09001CFE0FB97
:1003F700A3E0FAA3E0F912056B146050147003022E
:1004070004991470030204DF147003020524240402
:10041700600302056A900001120584FF9001D5E090
:10042700FEEF8EF0A4FF9001D2E0FBA3E0FAA3E079
:10043700F9EF1205B19001D97401F0A37401F0A38B
:1004470074D5F09001D2A3A3E00205679001CFE035
:10045700FBA3E0FAA3E0F9900001120584FF9001E5
:10046700D5E0FEEF8EF0A4FF9001D2E0FBA3E0FA07
:10047700A3E0F9900001EF1205D3E92401F9E43A6A
:10048700FA9001D97401F0A37401F0A374D5F002B6
:1004970005679001CFE0FBA3E0FAA3E0F990000124
:1004A700120584FF9001D5E0FEEF8EF0A4FF9001C6
:1004B700D2E0FBA3E0FAA3E0F9900002EF1205D324
:1004C700E92402F9E43AFA9001D97401F0A374011E
:1004D700F0A374D5F00205679001CFE0FBA3E0FA23
:1004E700A3E0F9900001120584FF9001D5E0FEEF2B
:1004F7008EF0A4FF9001D2E0FBA3E0FAA3E0F9900D
:100507000003EF1205D3E92403F9E43AFA9001D97D
:100517007401F0A37401F0A374D5F080439001CF68
:10052700E0FBA3E0FAA3E0F9900001120584FF9035
:1005370001D5E0FEEF8EF0A4FF9001D2E0FBA3E02F
:10054700FAA3E0F9900004EF1205D3E92404F9E4D3
:100557003AFA9001D97401F0A37401F0A374D5F0AD
:04056700120B8222CF
:100B82009001D6EBF0A3EAF0A3E9F0A3E0FBA3E027
:100B9200FAA3E0F912056BFFB401179001D6E0FB4E
:100BA200A3E0FAA3E0F912056BD394CD400474CD0F
:100BB2008018EFB4FF179001D6E0FBA3E0FAA3E0A0
:0E0BC200F912056BD394CD4004E4120606220E
:0F0049004201FC80004201FA80014201F880026E
:100BD000E4FFFE0FBF00010EBE2EF8BFE0F5120FBE
:100BE0002A9001FCE0FEA3E0F5828E837438F012B7
:100BF0000F2A9001FCE0FEA3E0F5828E83740CF0D6
:100C0000120F68120F2A9001FCE0FEA3E0F5828E1D
:040C1000837406F0F3
:010C140022BD
:100CDA009001CFEFF0A3EDF0A3EBF0120F2A9001F1
:100CEA00D0E0FF1200039001D1E02FFF9001FCE059
:100CFA00FCA3E0F5828C83EFF0120F2A9001CFE07B
:0F0D0A00FF9001F8E0FCA3E0F5828C83EFF0226C
:0E0C58009001CAEBF0A3EAF0A3E9F0A3EDF0DF
:100C6600E4A3F0F09001CAE0FBA3E0FAA3E0F99058
:100C760001CEE0FEF582758300120584FF9001CD5A
:100C8600E0FDAB06120CDA9001CEE004F0E0C3946E
:030C96001440D136
:010C99002238
:0B0D57009001C6EBF0A3EAF0A3E9F066
:100D6200E4A3F09001C9E0FFC394045024EF75F0AE
:100D720015A4FF9001C6E0FBA3E0FAA3E02FF9EA75
:100D820035F0FAA3E0FD120C589001C9E004F0809E
:010D9200D28E
:010D9300223D
:100F6800120F2A9001FCE0FEA3E0F5828E83740143
:020F7800F02265
:100F2A009001FAE0FEA3E0F5828E83E020E7F1E487
:060F3A00FF0FEFB40AFBFB
:010F4000228E
:10000300EF14600E14600F1460102403700E7E80D2
:0E001300800A7EC080067E9480027ED4AF06F6
:0100210022BC
:1000580045000A6666666600450003FFFFFFFFFF6E
:1000680041000F034200010005420008000044005F
:100078001066664C004100000060540172313A3647
:100088003620323A363620333A363620343A363647
:100098002000353A363620583A464620593A4646E0
:1000A80020503A46462000423A464620506F69643E
:1000B8003A417563756E202020202000303520736A
:1000C80065713A3020737465703A30204F66664C1B
:1000D80000615E0014FFFFFFFFFFFFFFFFFFFFFF50
:1000E800FFFFFFFFFFFFFFFFFFFFFFFFFFFFFFFF18
:1000F800FFFFFFFFFFFFFFFFFFFFFFFFFFFFFFFF08
:10010800FFFFFFFFFFFFFFFFFFFFFFFFFFFFFFFFF7
:10011800FFFFFFFFFFFFFFFFFFFFFFFFFFFFFFFFE7
:10012800FFFFFFFFFFFFFFFFFFFFFFFFFFFFFFFFD7
:10013800FFFFFFFFFFFFFFFFFFFFFFFFFFFFFFFFC7
:10014800FFFFFFFFFFFFFFFFFFFFFFFFFFFFFFFFB7
:10015800FFFFFFFFFFFFFFFFFFFFFFFFFFFFFFFFA7
:10016800FFFFFFFFFFFFFFFFFFFFFFFFFFFFFFFF97
:10017800FFFFFFFFFFFFFFFFFFFFFFFFFFFFFFFF87
:10018800FFFFFFFFFFFFFFFFFFFFFFFFFFFFFFFF77
:10019800FFFFFFFFFFFFFFFFFFFFFFFFFFFFFFFF67
:1001A800FFFFFFFFFFFFFFFFFFFFFFFFFFFFFFFF57
:1001B800FFFFFFFFFFFFFFFFFFFFFFFFFFFFFFFF47
:1001C800FFFFFFFFFFFFFFFFFFFFFFFFFFFFFFFF37
:1001D800FFFFFFFFFFFFFFFFFFFFFFFFFFFFFFFF27
:1001E800FFFFFFFFFFFFFFFFFFFFFFFFFFFFFFFF17
:1001F800FFFFFFFFFFFFFFFFFFFFFFFFFFFFFFFF07
:10020800FFFFFFFFFFFFFFFFFFFFFFFFFFFFFFFFF6
:10021800FFFFFFFFFFFFFFFFFFFFFFFFFFFFFFFFE6
:10022800FFFFFFFFFFFFFFFFFFFFFFFFFFFFFFFFD6
:03023800FFFFFFC6
:100D9400120F7A120BD0120F9B7B017A0179721217
:100DA4000D57120DD1900000E070F7120C9A9001CB
:100DB400C97401F0A37400F0A37401F0A37401F0EA
:0D0DC400A37400F0A3740AF012088980D512
:100DD1007B017A00790A12068F7B017A007903126E
:100DE10007A87B017A00790F1209F07B017A00795B
:100DF10001120C157B017A007908120D197B017A19
:060E0100007910020B2F26
:100F7A00759850438920758DFF438780D28ED29908
:010F8A002244
:10068F009001C6EBF0A3EAF0A3E9F09001C6E0FBFE
:10069F00A3E0FAA3E0F9E4FD120E077B02E4FD12DA
:1006AF000CDA9001C6E0FBA3E0FAA3E0F97D01129A
:1006BF000E077B03E4FD120CDA9001C6E0FBA3E00A
:1006CF00FAA3E02401F9E43AFAE4FD120E077B07DE
:1006DF00E4FD120CDA9001C6E0FBA3E0FAA3E024DC
:1006EF0001F9E43AFA7D01120E077B08E4FD120CC2
:1006FF00DA9001C6E0FBA3E0FAA3E02402F9E43AA2
:10070F00FAE4FD120E077B0CE4FD120CDA9001C621
:10071F00E0FBA3E0FAA3E02402F9E43AFA7D011228
:10072F000E077B0DE4FD120CDA9001C6E0FBA3E08F
:10073F00FAA3E02403F9E43AFAE4FD120E077B1161
:10074F00E4FD120CDA9001C6E0FBA3E0FAA3E0246B
:10075F0003F9E43AFA7D01120E077B12E4FD120C45
:10076F00DA9001C6E0FBA3E0FAA3E02404F9E43A2F
:10077F00FAE4FD120E077B027D01120CDA9001C61E
:10078F00E0FBA3E0FAA3E02404F9E43AFA7D0112B6
:09079F000E077B037D01020CDA58
:1007A8009001C6EBF0A3EAF0A3E9F09001C6E0FBE4
:1007B800A3E0FAA3E0F9E4FD120E077B077D01121E
:1007C8000CDA9001C6E0FBA3E0FAA3E0F97D011280
:1007D8000E077B087D01120CDA9001C6E0FBA3E04E
:1007E800FAA3E02401F9E43AFAE4FD120E077B0CBF
:1007F8007D01120CDA9001C6E0FBA3E0FAA3E02425
:1008080001F9E43AFA7D01120E077B0D7D01120C05
:10081800DA9001C6E0FBA3E0FAA3E02402F9E43A87
:10082800FAE4FD120E077B117D01120CDA9001C665
:10083800E0FBA3E0FAA3E02402F9E43AFA7D01120E
:100848000E077B127D01120CDA9001C6E0FBA3E0D3
:10085800FAA3E02403F9E43AFAE4FD120E077B0256
:100868007D02120CDA9001C6E0FBA3E0FAA3E024B3
:1008780003F9E43AFA7D01120E077B037D02020CAC
:01088800DA95
:1009F000120ACF9001C6EBF0A3EAF0A3E9F01205CA
:100A00006BFF7B0A7D02120CDA9001C6E0FBA3E0CB
:100A1000FAA3E0F9900001120584FF7B0B7D02121E
:100A20000CDA9001C6E0FBA3E0FAA3E0F990000223
:100A3000120584FF7B0C7D02120CDA9001C6E0FBEC
:100A4000A3E0FAA3E0F9900003120584FF7B0D7D7B
:100A500002120CDA9001C6E0FBA3E0FAA3E0F990E1
:0D0A60000004120584FF7B0E7D02020CDAFB
:100C15009001C6EBF0A3EAF0A3E9F09001C6E0FB72
:100C2500A3E0FAA3E02401F9E43AFA7D01120E6487
:100C3500E4FB7D03120CDA9001C6E0FBA3E0FAA306
:100C4500E02401F9E43AFA7D02120E647B017D038A
:030C5500020CDAB4
:100D19009001C6EBF0A3EAF0A3E9F09001C6E0FB6D
:100D2900A3E0FAA3E0F912056B2430FF7B077D03EA
:100D3900120CDA9001C6E0FBA3E0FAA3E0F99000F7
:0E0D4900011205842430FF7B0E7D03020CDABC
:100B2F009001C6EBF0A3EAF0A3E9F09001C6E0FB59
:100B3F00A3E0FAA3E0F912056BFF7B117D03120C02
:100B4F00DA9001C6E0FBA3E0FAA3E0F990000112EE
:100B5F000584FF7B127D03120CDA9001C6E0FBA324
:100B6F00E0FAA3E0F9900002120584FF7B137D03E6
:030B7F00020CDA8B
:0F0F9B005389F0438901E4F58A758C4CD28C227E
:100F1200426C65752000566572742000526F7567C9
:080F22006500417563756E0066
:100E0700ED700712056BFFC48007EDB4010B1205E7
:100E17006B540F9001C9F080069001C97420F07BD4
:0F0E2700017A0179C9120EBB9001C9EFF0E0FF0B
:010E36002299
:100E6400ED700812056B75F064800AEDB401091287
:100E7400056B75F00A84800DEDB4020E12056B75D6
:0C0E8400F00A84E5F02430FF80027F209B
:010E9000223F
:0B0ACF009001C9EBF0A3EAF0A3E9F0EE
:100ADA0012056BFF70109001CC74FFF0A3740FF035
:100AEA00A37412F08033EFB401109001CC74FFF0BC
:100AFA00A3740FF0A37418F0801FEF9001CCB40216
:100B0A000D74FFF0A3740FF0A3741EF0800B74FF32
:100B1A00F0A3740FF0A37424F09001CCE0FBA3E0DF
:040B2A00FAA3E0F951
:010B2E0022A4
:100EBB0012056BFED394095006EE2430FF801112FD
:100ECB00056BFED3940F5006EE2437FF80027F2074
:010EDB0022F4
:030000000209648E
:0C096400787FE4F6D8FD7581070209AB2E
:10056B00BB010689828A83E0225002E722BBFE028E
:09057B00E32289828A83E49322C1
:10058400BB010CE58229F582E5833AF583E022502C
:1005940006E92582F8E622BBFE06E92582F8E22276
:0D05A400E58229F582E5833AF583E4932290
:1005B100BB010989828A83F8E028F022500327F7DA
:1005C10022BBFE05F8E328F3228A838982F8E493AB
:0205D1002822DE
:1005D300BB010FF8E58229F582E5833AF583E0282C
:1005E300F0225009C58229F8E58226F622BBFE09CE
:1005F300C58229F8E22582F222F8EA2583F583E908
:0306030093282217
:10060600BB010689828A83F0225002F722BBFE01D3
:02061600F322CD
:10061800F8BB010DE58229F582E5833AF583E8F018
:10062800225006E92582C8F622BBFE05E92582C8C4
:02063800F222AC
:10063A00BC000BBE0029EF8DF084FFADF022E4CCA4
:10064A00F875F008EF2FFFEE33FEEC33FCEE9DEC6D
:10065A00984005FCEE9DFE0FD5F0E9E4CEFD22EDB3
:10066A00F8F5F0EE8420D21CFEADF075F008EF2FFD
:10067A00FFED33FD4007985006D5F0F222C398FDEE
:05068A000FD5F0EA228B
:10097000020D94E493A3F8E493A34003F68001F2FC
:1009800008DFF48029E493A3F85407240CC8C33388
:10099000C4540F4420C8834004F456800146F6DF57
:1009A000E4800B0102040810204080900026E47EC1
:1009B000019360BCA3FF543F30E509541FFEE4934C
:1009C000A360010ECF54C025E060A840B8E493A313
:1009D000FAE493A3F8E493A3C8C582C8CAC583CA3E
:1009E000F0A3C8C582C8CAC583CADFE9DEE780BEF6
:01023B0000C2
:00000001FF
