:1014E700D294121489C29412148BC2957F027E0083
:0314F70002148F4D
:1014FA00C294C29512148B121489D2947F027E0070
:03150A0002148F39
:10147100EF6004D2948002C29412148B121489C2B8
:08148100957F027E0002148F2A
:101415009001D57401F0D29412148B121489209482
:1014250005E49001D5F0C29512148B9001D5E0FF2B
:011435002294
:05108E009001D1EFF01C
:10109300E4A3F0A3F09001D1E030E7047F018002E4
:1010A300E4FF1214719001D1E0FF25E0F09001D329
:1010B300E004F070069001D2E004F0C39001D3E0A5
:1010C30094089001D2E06480948040C9D2951214B0
:0110D3001507
:0110D40022F9
:051041009001D1EFF069
:10104600E4A3F0A3F0A3F09001D2E0FF25E0F012B4
:101056001415EF60069001D2E004F09001D4E0048C
:10106600F070069001D3E004F0C39001D4E0940838
:101076009001D3E06480948040CD9001D1E0FF12CE
:0710860014719001D2E0FF9C
:01108D002240
:0810D5009001CEEEF0A3EFF054
:1010DD00E4A3F01214E77FA012108E9001CEE0FF72
:1010ED009001D0F012108E9001CEA3E0FFA3F0126C
:1010FD00108E1214E77FA112108E7F0112104190F5
:0C110D0001D0EFF01214FA9001D0E0FFC6
:0111190022B3
:0B135900900203EFF0A3ECF0A3EDF016
:10136400E4FF1214E77FA012108E900204E0FF1233
:10137400108E900204A3E0FF12108E900203E0FF8F
:0D13840012108E1214FA7FA07E0F02148F3B
:06148900D2957F027E00F7
:10148F00E4FDFCC3ED9FEC9E50070DBD00010C80E9
:01149F00F25A
:0114A0002229
:100026005001E03132334134353642373839432ACC
:0300360030234430
:1011E4009001C77420F0E4FF20922E1214E77F29A7
:1011F40012108EEF600280217FFF1210419001C710
:10120400EFF01214FA9001C7E0540F24E0F582E4E1
:0F1214003401F583E09001C7F07B017A0179C7BF
:0112230022A8
:1003C90012068B1207C1047723045D2A043F300308
:1003D900F431040232041133042034042F35049E0D
:1003E9004204D5430505440000052A9001CAE0FBF3
:1003F900A3E0FAA3E0F9E4803A9001CAE0FBA3E0A4
:10040900FAA3E0F97401802B9001CAE0FBA3E0FA9A
:10041900A3E0F97402801C9001CAE0FBA3E0FAA3EF
:10042900E0F97403800D9001CAE0FBA3E0FAA3E0B0
:10043900F974040207269001CAE0FBA3E0FAA3E0DD
:10044900F99000011206A42404FFE433FE7C007D28
:10045900140205209001CDE0F9A3E0FAA3E0900190
:10046900D6C9F0A3EAF0A3E9F0A374FF80189001BC
:10047900CDE0F9A3E0FAA3E09001D6C9F0A3EAF030
:10048900A3E9F0A37401F09001CAE0FBA3E0FAA389
:10049900E0F90202459001CDE0FBA3E0FAA3E0F9FF
:1004A90074101207269001CDE0FBA3E0FAA3E0F94E
:1004B900900001744C120738900002E4120738903A
:1004C900000374A0120738900004802D9001D0E039
:1004D900FBA3E0FAA3E0F912068B2401FFE433FE43
:1004E9007C007D0712076CED1207269001D0E0FB16
:1004F900A3E0FAA3E0F9900001E480229001D0E0A2
:10050900FBA3E0FAA3E0F99000011206A42401FF7D
:10051900E433FE7C007D0A12076C900001ED12079E
:02052900382276
:100245009001D3EBF0A3EAF0A3E9F09001D3E0FB32
:10025500A3E0FAA3E0F912068B14605014700302B0
:1002650002F714700302033D147003020382240491
:1002750060030203C89000011206A4FF9001D9E0B3
:10028500FEEF8EF0A4FF9001D6E0FBA3E0FAA3E019
:10029500F9EF1206D19001DD7401F0A37401F0A30A
:1002A50074D9F09001D6A3A3E00203C59001D3E071
:1002B500FBA3E0FAA3E0F99000011206A4FF900168
:1002C500D9E0FEEF8EF0A4FF9001D6E0FBA3E0FAA3
:1002D500A3E0F9900001EF1206F3E92401F9E43AED
:1002E500FA9001DD7401F0A37401F0A374D9F00252
:1002F50003C59001D3E0FBA3E0FAA3E0F990000168
:100305001206A4FF9001D9E0FEEF8EF0A4FF900144
:10031500D6E0FBA3E0FAA3E0F9900002EF1206F3A2
:10032500E92402F9E43AFA9001DD7401F0A37401BD
:10033500F0A374D9F00203C59001D3E0FBA3E0FA62
:10034500A3E0F99000011206A4FF9001D9E0FEEFA9
:100355008EF0A4FF9001D6E0FBA3E0FAA3E0F990AC
:100365000003EF1206F3E92403F9E43AFA9001DDFC
:100375007401F0A37401F0A374D9F080439001D304
:10038500E0FBA3E0FAA3E0F99000011206A4FF90B8
:1003950001D9E0FEEF8EF0A4FF9001D6E0FBA3E0CB
:1003A500FAA3E0F9900004EF1206F3E92404F9E456
:1003B5003AFA9001DD7401F0A37401F0A374D9F049
:0403C500120FF322FE
:100FF3009001DAEBF0A3EAF0A3E9F0A3E0FBA3E0AE
:10100300FAA3E0F912068BFFB401179001DAE0FBB3
:10101300A3E0FAA3E0F912068BD394CD400474CD78
:101023008018EFB4FF179001DAE0FBA3E0FAA3E026
:0E103300F912068BD394CD4004E41207262256
:0F00390042020180004201FF80014201FD80026E
:10111A00E4FFFE0FBF00010EBE2EF8BFE0F5121469
:10112A00B9900201E0FEA3E0F5828E837438F012D2
:10113A0014B9900201E0FEA3E0F5828E83740CF0EC
:10114A0012150D1214B9900201E0FEA3E0F5828E89
:04115A00837406F0A4
:01115E00226E
:101264009001D0EFF0A3EDF0A3EBF01214B99001CC
:10127400D1E0FF1200039001D2E02FFF900201E0C1
:10128400FCA3E0F5828C83EFF01214B99001D0E056
:0F129400FF9001FDE0FCA3E0F5828C83EFF022D8
:0E11A2009001CBEBF0A3EAF0A3E9F0A3EDF08F
:1011B000E4A3F0F09001CBE0FBA3E0FAA3E0F99008
:1011C00001CFE0FEF5827583001206A4FF9001CEE8
:1011D000E0FDAB061212649001CFE004F0E0C3948E
:0311E0001440D1E7
:0111E30022E9
:0B12E1009001C7EBF0A3EAF0A3E9F0D6
:1012EC00E4A3F09001CAE0FFC394045024EF75F01E
:1012FC0015A4FF9001C7E0FBA3E0FAA3E02FF9EAE5
:10130C0035F0FAA3E0FD1211A29001CAE004F080BE
:01131C00D2FE
:01131D0022AD
:10150D001214B9900201E0FEA3E0F5828E837401FE
:02151D00F022BA
:1014B9009001FFE0FEA3E0F5828E83E020E7F1E4EE
:0614C900FF0FEFB40AFB67
:0114CF0022FA
:10000300EF14600E14600F1460102403700E7E80D2
:0E001300800A7EC080067E9480027ED4AF06F6
:0100210022BC
:0815500066664C006E4C2000A1
:100048004500096666666600430012000000450028
:1000580002FFFFFFFFFF41000E03420000000542C0
:100068000007000043000FFF155060540173313A38
:10007800363620323A363620333A363620343A3657
:10008800362000353A363620583A464620593A4600
:100098004620503A46462000423A464620506F696C
:1000A800643A417563756E20202020200030352089
:1000B8007365713A3020737465703A30204F666604
:1000C8004C00615E00150C4C1C51000C731C510057
:1000D8000C782351000C782351FF0C782351FF0C26
:1000E800782351FF0C782351FF0C782351FF0C78AB
:1000F8002351FF0C782351FF114C054D00115E0070
:100108004D0011690C4D0011690C4DFF11690C4D22
:10011800FF11690C4DFF11690C4DFF11690C4DFF62
:1001280011690C4DFF11690C4DFF154C1351001549
:100138006B13510015751E510015751E51FF15756D
:100148001E51FF15751E51FF15751E51FF15751EA1
:1001580051FF15751E51FF15751E51FF0B644A6638
:10016800FF0B813966FF0B813966000B8139660008
:100178000B813966000B813966000B813966000BEB
:10018800813966000B813966000B813966000B8165
:100198003966FF2060375CFF2082375CFF2082379A
:1001A8005C00204C37A000104C00A000104C00A0B0
:1001B80000104C00A000104C00A000104C00A00043
:1001C8000B813966FF1C60315CFF1C7E315CFF1CB3
:1001D8007E315C001C4C31A000104C00A000104C7B
:1001E80000A000104C00A000104C00A000104C0013
:1001F800A0000B813966FF18602D5CFF187C2D5C10
:10020800FF187C2D5C00184C2DA000104C00A0009D
:10021800104C00A000104C00A000104C00A00010D2
:040228004C00A000E6
:10052B0012151F12111A1215417B017A01797312E0
:10053B0012E112157012156AEF70030205CF121536
:10054B005EEF70030205FB9001CA7401F0A3740007
:10055B00F0A37408F0E4121224900009EFF090015C
:10056B00CA7401F0A37400F0A37408F0A37401F033
:10057B00FB12122890000AEFF09001CA7401F0A34D
:10058B007400F0A37408F0740212122490000BEFA5
:10059B00F09001CA7401F0A37400F0A37408F07416
:1005AB000312122490000CEFF09001CA7401F0A317
:1005BB007400F0A37408F0A3740412122590000DBC
:1005CB00EFF0802C1211E49001CA7401F0A37400B7
:1005DB00F0A37400F0A37401F0A37400F0A37409EA
:1005EB00F0A37401F0A37400F0A37407F01203C915
:1005FB00308D097B017A0079121214D0900012E031
:10060B00D394054010E4F090000F74FFF0A3741521
:10061B00F0A37450F0900013E0D394034005E4F082
:10062B0012131E900014E0D394274023E4F07B01B7
:10063B009001CA04F0A37400F0A37407F0A3EBF0CD
:10064B00A37400F0A3740EF07A00790212093E1223
:10065B00155EEF601FE4900012F090000F74FFF036
:10066B00A37415F0A37454F01215647B017A00790E
:10067B0009120E647B017A0079021207E70205402A
:10131E007B017A007909120A897B017A007902121F
:10132E000BA27B017A00790E120DE77B017A007910
:10133E000012115F7B017A0079071212A390000F41
:0B134E00E0FBA3E0FAA3E0F9020FA00F
:08122400A3F07B017A007907B9
:10122C0012068BFF7E007C007D3212075AAC06AD95
:10123C00079001CAE0FBA3E0FAA3E0F912068B7554
:10124C00F005A42DFFEC35F0FE9001CDE07C002FD5
:07125C00FFEC3EFE1210D56D
:011263002268
:10151F00759850438920758DFD438780D28ED2995F
:01152F002299
:100A89009001C7EBF0A3EAF0A3E9F09001C7E0FBFE
:100A9900A3E0FAA3E0F9E4FD1213917B02E4FD124D
:100AA90012649001C7E0FBA3E0FAA3E0F97D01120B
:100AB90013917B03E4FD1212649001C7E0FBA3E0EC
:100AC900FAA3E02401F9E43AFAE4FD1213917B0751
:100AD900E4FD1212649001C7E0FBA3E0FAA3E0244D
:100AE90001F9E43AFA7D011213917B08E4FD12122F
:100AF900649001C7E0FBA3E0FAA3E02402F9E43A19
:100B0900FAE4FD1213917B0CE4FD1212649001C703
:100B1900E0FBA3E0FAA3E02402F9E43AFA7D01122A
:100B290013917B0DE4FD1212649001C7E0FBA3E071
:100B3900FAA3E02403F9E43AFAE4FD1213917B11D4
:100B4900E4FD1212649001C7E0FBA3E0FAA3E024DC
:100B590003F9E43AFA7D011213917B12E4FD1212B2
:100B6900649001C7E0FBA3E0FAA3E02404F9E43AA6
:100B7900FAE4FD1213917B027D011212649001C700
:100B8900E0FBA3E0FAA3E02404F9E43AFA7D0112B8
:090B990013917B037D010212643B
:100BA2009001C7EBF0A3EAF0A3E9F09001C7E0FBE4
:100BB200A3E0FAA3E0F9E4FD1213917B077D011291
:100BC20012649001C7E0FBA3E0FAA3E0F97D0112F1
:100BD20013917B087D011212649001C7E0FBA3E030
:100BE200FAA3E02401F9E43AFAE4FD1213917B0C32
:100BF2007D011212649001C7E0FBA3E0FAA3E02496
:100C020001F9E43AFA7D011213917B0D7D01121272
:100C1200649001C7E0FBA3E0FAA3E02402F9E43AFE
:100C2200FAE4FD1213917B117D011212649001C747
:100C3200E0FBA3E0FAA3E02402F9E43AFA7D011210
:100C420013917B127D011212649001C7E0FBA3E0B5
:100C5200FAA3E02403F9E43AFAE4FD1213917B02C9
:100C62007D021212649001C7E0FBA3E0FAA3E02424
:100C720003F9E43AFA7D011213917B037D02021219
:010C8200640D
:100DE700120F409001C7EBF0A3EAF0A3E9F0120657
:100DF7008BFF7B0A7D021212649001C7E0FBA3E020
:100E0700FAA3E0F99000011206A4FF7B0B7D021202
:100E170012649001C7E0FBA3E0FAA3E0F990000297
:100E27001206A4FF7B0C7D021212649001C7E0FB3F
:100E3700A3E0FAA3E0F99000031206A4FF7B0D7D5F
:100E4700021212649001C7E0FBA3E0FAA3E0F99055
:0D0E570000041206A4FF7B0E7D020212644F
:10115F009001C7EBF0A3EAF0A3E9F09001C7E0FB21
:10116F00A3E0FAA3E02401F9E43AFA7D011213C1D6
:10117F00E4FB7D031212649001C7E0FBA3E0FAA326
:10118F00E02401F9E43AFA7D021213C17B017D03D9
:03119F00021264D5
:1012A3009001C7EBF0A3EAF0A3E9F09001C7E0FBDC
:1012B300A3E0FAA3E0F912068B2430FF7B077D033A
:1012C3001212649001C7E0FBA3E0FAA3E0F99000D7
:0E12D300011206A42430FF7B0E7D030212647C
:100FA0009001C7EBF0A3EAF0A3E9F09001C7E0FBE2
:100FB000A3E0FAA3E0F912068BFF7B117D03121266
:100FC000649001C7E0FBA3E0FAA3E0F990000112EE
:100FD00006A4FF7B127D031212649001C7E0FBA3FD
:100FE000E0FAA3E0F99000021206A4FF7B137D0350
:030FF00002126486
:0F1541005389F0438901E4F58A758C4CD28C22D2
:1014D000C28D74011206D190000174011206F390BE
:0714E000000274010206F393
:1014A100426C65752000566572742000526F756735
:0814B1006500417563756E00D2
:10139100ED700712068BFFC48007EDB4010B120636
:1013A1008B540F9001CAF080069001CA7420F07B23
:0F13B100017A0179CA1214369001CAEFF0E0FFF9
:0113C000220A
:1013C100ED700812068B75F064800AEDB401091204
:1013D100068B75F00A84800DEDB4020E12068B7532
:0C13E100F00A84E5F02430FF80027F2039
:0113ED0022DD
:0B0F40009001CAEBF0A3EAF0A3E9F077
:100F4B0012068BFF70109001CD74FFF0A37414F098
:100F5B00A374A1F08033EFB401109001CD74FFF0B6
:100F6B00A37414F0A374A7F0801FEF9001CDB4020B
:100F7B000D74FFF0A37414F0A374ADF0800B74FF29
:100F8B00F0A37414F0A374B3F09001CDE0FBA3E0D5
:040F9B00FAA3E0F9DC
:010F9F00222F
:1014360012068BFED394095006EE2430FF8011125B
:10144600068BFED3940F5006EE2437FF80027F20D2
:011456002273
:10022C004101F3004101F0004101F1004101F400F2
:04023C004101F2008A
:05157000D2ACD2AF2255
:03002300020EDEEC
:100EDE00C0E0C0F0C083C082C0D075D000C000C0DA
:100EEE0001C002C003C004C005C006C0073098226E
:100EFE001215759001F4EFF09001F3E0FE24F5F574
:100F0E0082E43401F583EFF0EE0454079001F3F020
:100F1E00C298309902C299D007D006D005D004D01D
:100F2E0003D002D001D000D0D0D082D083D0F0D068
:020F3E00E0329F
:02157500AF992C
:011577002251
:1007E700E4FF9001F0E0FE9001F3E06E7003020970
:1007F7003D9001F1E0B40800400302093D90080B69
:10080700F82828730208230208510208830208A166
:100817000208C30208E50209070209169001F0E081
:10082700FD24F5F582E43401F583E0FF74F52DF539
:1008370082E43401F583E4F0EE0454079001F0F00C
:10084700EF6447600302093D804B9001F0E0FE240E
:10085700F5F582E43401F583E0FF74F52EF582E4C3
:100867003401F583E4F09001F0E0045407F0EFB4AD
:100877004F0280219001F1E0140209129001F0E08B
:1008870024F5F582E43401F583E01207269001F0A0
:10089700E0045407F0A3E00480719001F0E0FF2426
:1008A700F5F582E43401F583E0900001120738EF93
:1008B7000454079001F0F0A3E004804F9001F0E0AA
:1008C700FF24F5F582E43401F583E0900002120776
:1008D70038EF0454079001F0F0A3E004802D900155
:1008E700F0E0FF24F5F582E43401F583E09000039E
:1008F700120738EF0454079001F0F0A3E004800BCF
:100907009001F0E0045407F0A3E0045407F02290AC
:1009170001F0E0FF24F5F582E43401F583E090006F
:1009270004120738EF0454079001F0F0A3E00454D1
:0609370007F0A37401F0BB
:01093D002297
:100E64009001C7EBF0A3EAF0A3E9F07F4712153530
:100E74007F4F1215359001C7E0FBA3E0FAA3E0F918
:100E840012068BFF1215359001C7E0FBA3E0FAA30D
:100E9400E09000011215309001C7E0FBA3E0FAA333
:100EA400E09000021215309001C7E0FBA3E0FAA322
:100EB400E0F99000031215319001C7E0FBA3E0FABA
:100EC400A3E0F99000041215319001C7E0FBA3E000
:0A0ED400FAA3E0F91213EE0215353F
:1013EE009000011206A4FF12068B24962FFF900088
:1013FE00021206A42FFF9000031206A42FFF9000E6
:06140E00041206A42FFFEA
:0114140022B5
:05153000F91206A4FF02
:0C153500C2AC8F993099FDC299D2AC2253
:06155800A298E433FF221B
:06155E009001F2E0FF2203
:06156400E49001F2F02208
:040240004102060071
:10093E009001C7EBF0A3EAF0A3E9F0900206E014F1
:10094E00603C1470030209D51470030209FC147084
:10095E0003020A5724046003020A889001CAE0F9D0
:10096E00A3E0FAA3E09001D3C9F0A3EAF0A3E9F063
:10097E009001C7E0FBA3E0FAA3E0F9020C8390011B
:10098E00CAE0FBA3E0FAA3E0F9900001740112069D
:10099E00F39000011206A464046003020A88900119
:1009AE00CAE0FBA3E0FAA3E0F97403120726900154
:1009BE00CAE0FBA3E0FAA3E0F9900001E4120738C5
:1009CE009002067402F0229001CAE0FBA3E0FAA3A3
:1009DE00E0F990000174011206F39000011206A4D2
:1009EE0064026003020A889002067403F0229001EA
:1009FE00C7E0FBA3E0FAA3E02403F9E43AFA1214E9
:100A0E00579001CAE0FBA3E0FAA3E0F9EF12072624
:100A1E009001CAE0FBA3E0FAA3E0F912068B24FCD6
:100A2E00FF9001CDE0FBA3E0FAA3E0F9EF12072659
:100A3E009001CAE0FBA3E0FAA3E0F9900001E412F2
:100A4E0007389002067404F0229001CAE0FBA3E07E
:100A5E00FAA3E0F990000174011206F3900001125E
:100A6E0006A4B40615E4900206F09001CDE0FBA3B7
:0B0A7E00E0FAA3E0F97404120726223E
:100C83009001D0EBF0A3EAF0A3E9F09001D0E0FBF0
:100C9300A3E0FAA3E0F912068BFFC394004027EF09
:100CA300D3946050219000011206A4C3940040160F
:100CB30012068BD39470500E9001D3E0FBA3E0FA9D
:100CC300A3E0F9E480769001D0E0FBA3E0FAA3E08F
:100CD300F912068BFFC394604028EFD394A05022EF
:100CE3009000011206A4C394C0401712068BD3943C
:100CF300FF500F9001D3E0FBA3E0FAA3E0F97401E6
:100D0300803A9001D0E0FBA3E0FAA3E0F912068B4E
:100D1300FFC394A04041EFD394FF503B90000112D6
:100D230006A4C39470403012068BD394C05028900D
:100D330001D3E0FBA3E0FAA3E0F9740212072690C3
:100D430001D3E0FBA3E0FAA3E0F9900001E412076A
:080D5300389002067401F02241
:1014570012068BFEC3944050047F04800CEEC394A5
:091467007050047F0580027F062D
:011470002259
:06156A00900206E0FF22E2
:03000000020D5B93
:0C0D5B00787FE4F6D8FD758107020DA238
:10068B00BB010689828A83E0225002E722BBFE026D
:09069B00E32289828A83E49322A0
:1006A400BB010CE58229F582E5833AF583E022500B
:1006B40006E92582F8E622BBFE06E92582F8E22255
:0D06C400E58229F582E5833AF583E493226F
:1006D100BB010989828A83F8E028F022500327F7B9
:1006E10022BBFE05F8E328F3228A838982F8E4938A
:0206F1002822BD
:1006F300BB010FF8E58229F582E5833AF583E0280B
:10070300F0225009C58229F8E58226F622BBFE09AC
:10071300C58229F8E22582F222F8EA2583F583E9E6
:03072300932822F6
:10072600BB010689828A83F0225002F722BBFE01B2
:02073600F322AC
:10073800F8BB010DE58229F582E5833AF583E8F0F7
:10074800225006E92582C8F622BBFE05E92582C8A3
:02075800F2228B
:10075A00EF8DF0A4A8F0CF8CF0A428CE8DF0A42EB3
:02076A00FE226D
:10076C00BC000BBE0029EF8DF084FFADF022E4CC71
:10077C00F875F008EF2FFFEE33FEEC33FCEE9DEC3A
:10078C00984005FCEE9DFE0FD5F0E9E4CEFD22ED80
:10079C00F8F5F0EE8420D21CFEADF075F008EF2FCA
:1007AC00FFED33FD4007985006D5F0F222C398FDBB
:0507BC000FD5F0EA2258
:1007C100D083D082F8E4937012740193700DA3A3C7
:1007D10093F8740193F5828883E4737402936860DB
:0607E100EFA3A3A380DFDB
:100D670002052BE493A3F8E493A34003F68001F272
:100D770008DFF48029E493A3F85407240CC8C3338D
:100D8700C4540F4420C8834004F456800146F6DF5C
:100D9700E4800B0102040810204080900026E47EC6
:100DA700019360BCA3FF543F30E509541FFEE49351
:100DB700A360010ECF54C025E060A840B8E493A318
:100DC700FAE493A3F8E493A3C8C582C8CAC583CA43
:100DD700F0A3C8C582C8CAC583CADFE9DEE780BEFB
:0102440000B9
:00000001FF
